:100000000C94B5000C9435040C945B040C94D20051
:100010000C94D2000C94D2000C94D2000C94D20018
:100020000C94D2000C94D2000C94D2000C94D20008
:100030000C94D2000C94D2000C94D2000C94D200F8
:100040000C94D2000C94D2000C94D2000C94D200E8
:100050000C94D2000C94D2000C94D2000C94D200D8
:100060000C94D2000C94D2006E616E00696E660032
:1000700000407A10F35A00A0724E18090010A5D45F
:10008000E80000E87648170000E40B54020000CABC
:100090009A3B000000E1F505000080969800000002
:1000A00040420F000000A086010000001027000061
:1000B0000000E803000000006400000000000A00E7
:1000C000000000000100000000002C76D888DC67EA
:1000D0004F0823DFC1DFAE59E1B1B796E5E3E45342
:1000E000C63AE651997696E8E6C28426EB898C9B5F
:1000F00062ED407C6FFCEFBC9C9F40F2BAA56FA5FF
:10010000F490055A2AF75C936B6CF9676DC11BFC80
:10011000E0E40D47FEF520E6B500D0ED902E03009B
:10012000943577050080841E080000204E0A0000E8
:1001300000C80C333333330F986E12831141EF8DA7
:100140002114893BE65516CFFEE6DB18D1844B38E7
:100150001BF77C1D901DA4BBE424203284725E2218
:100160008100C9F124ECA1E53D2711241FBECFEF8A
:10017000D8E0DEBFCDBF11E0A0E0B1E0EAEFF5E1ED
:1001800002C005900D92AC39B107D9F721E0ACE976
:10019000B1E001C01D92A13BB207E1F70E94F60752
:1001A0000C94FB0A0C940000AFE0B0E0EAEDF0E044
:1001B0000C94E3086C011B015A01FC0117821682A2
:1001C000838181FF48C39E012F5F3F4F4901F601A4
:1001D0009381F10193FD859193FF81911F01882304
:1001E00009F4E7C2853239F493FD859193FF81913B
:1001F0001F01853239F4B60190E00E941A0A3501D8
:100200005301E5CFF12C512C00E0003238F48B3251
:1002100009F190F48032F9F0833209F107FD34C01E
:1002200020ED280F2A3020F506FF1BC0FAE0FF9EC4
:10023000200D1124F22E05C08D3279F0803371F734
:100240000160F10193FD859193FF81911F0181115F
:10025000DCCF1AC002600460F4CF0860F2CF006106
:10026000F0CF3AE0539E200D1124522E0062E9CFC8
:100270008E3221F406FD9DC20064E3CF8C3611F46A
:100280000068DFCF8836E9F29BEB980F933008F0D7
:100290005FC00061805E06FD02C046E0F42E102FB4
:1002A0001F73853609F05BC0106417FF61C08F2D86
:1002B0009BE39F1508F48BE344244394480E27E006
:1002C0003501F4E06F0E711CF5016081718182814E
:1002D0009381042DA4010E941A095C01F981FC8715
:1002E000F0FF03C00DE2F3FF07C00BE211FD04C0F5
:1002F000012F047012FD00E22C852C70E22E09F40F
:1003000057C00111ABC2F3E0E12CF515A0F483E076
:10031000E52CE81A13FD08C0B60180E290E00E94C7
:100320001A0AEA94E110F8CF002329F0B601802FD1
:1003300090E00E941A0A3C8528E6A22E20E0B22E08
:1003400033FD04C09CE6A92E90E0B92E107122C0A6
:100350009BE9980F933008F033C10F7E9CCF86360F
:1003600011F41068A2CFFF2009F49FCFFA949DCF1B
:10037000E7E02F2DEF1518F427E037E0F32E412C9E
:100380009FCF11118052B60190E00E941A0A8FEFA0
:10039000A81AB80AF50184918111F3CFEE2009F46F
:1003A0002FCFB60180E290E00E941A0AEA94F6CFBD
:1003B00017FF6FC04A0CFC85F4FF04C08A818133AB
:1003C00009F44A9414140CF086C028E0241510F4A3
:1003D00088E0482E85E090E017FF06C0C501B7FE13
:1003E00002C090E080E0019601110196FF2031F0FB
:1003F0002F2D30E02F5F3F4F820F931F58161906A5
:1004000019F014F0E52CE81A812F897011F4E1102D
:1004100067C0002329F0B601802F90E00E941A0ADD
:1004200013FD02C0E11063C017FF7CC08501B7FE59
:1004300002C010E000E0C501841991092C016F2D64
:1004400070E0EE27FF27E61BF70BFF87EE870F3FD5
:10045000100729F4B6018EE290E00E941A0AA01655
:10046000B1060CF44BC0401651060CF047C0F50124
:10047000E01BF10BE80DF91D8181015011092E855A
:100480003F8502171307E4F1B60190E00E941A0AB3
:10049000DECF16FD9FCFEF2DF0E0EA15FB0534F01F
:1004A0003CEFA3163FEFB3060CF010683296E80D50
:1004B000F91D01C0FA94FF2019F082918033D1F325
:1004C00017FF88CF442443944F0CFA141B0431F0D7
:1004D0002CF0FA187FCF442443947CCFF12C7ACFB0
:1004E000B60180E290E00E941A0AEA9490CFB60129
:1004F00080E390E00E941A0AEA9494CF80E3BDCF93
:10050000A016B10641F49A81963350F4953319F44C
:100510003C8534FF05C0B60190E00E941A0A3ECF28
:1005200081E3F9CF8A81813319F09C859F7E9C8776
:10053000B60190E00E941A0AFF20A9F0B6018EE2EF
:1005400090E00E941A0AF394F394E2E001E00E0FA7
:10055000E80DF92DF11D8081B60190E00E941A0A84
:10056000E02F0F11F3CF85E690E014FF02C085E481
:1005700090E0B6010E941A0AB7FC06C0A114B104AB
:10058000C1F4EC85E4FF15C0B194A194B1088DE2EB
:10059000B60190E00E941A0A80E32AE0A216B10494
:1005A00054F4B60190E00E941A0AB601C501C09643
:1005B000B4CF8BE2EDCF8F5FFAE0AF1AB108EDCF89
:1005C0008336C9F0833771F1833509F05BC035019B
:1005D000F2E06F0E711CF501A080B1806F2D70E00C
:1005E00006FD02C06FEF7FEFC5010E94F2099D87F3
:1005F0008C8700680DC0350132E0630E711CF50177
:100600008081898321E030E03D872C8754010F777A
:1006100003FD06C02C853D855216130609F0A8F48B
:10062000E52C2BC0350132E0630E711CF501A08072
:10063000B1806F2D70E006FD02C06FEF7FEFC50146
:100640000E94FD099D878C87E2CFB60180E290E091
:100650000E941A0A5A94DECFF50107FD859107FF23
:1006600081915F01B60190E00E941A0AE110EA94BC
:100670008C859D8501979D878C87EC85FD85EF2B6B
:1006800059F78CCE843619F0893609F074C03501DB
:1006900007FF66C0F4E06F0E711CF5016081718187
:1006A00082819381102F1F7697FF08C090958095C7
:1006B000709561957F4F8F4F9F4F10682AE030E013
:1006C000A4010E949D0AA82EA818BA2C012F16FF7B
:1006D0000AC00E7FAF1438F414FF04C012FD02C02C
:1006E000012F0E7EBF2C04FF8EC0FE01EA0DF11D0E
:1006F0008081803309F080C0097EF02FF870EF2EE2
:1007000003FD90C000FF8AC0FA2CB51410F4F50C5C
:10071000FB1804FF8DC0B60180E390E00E941A0A26
:1007200002FF09C088E790E001FF02C088E590E081
:10073000B6010E941A0AAF1408F486C0AA940A2DC2
:1007400010E00F5F1F4F080D191DF80182918F01F6
:10075000B60190E00E941A0A80169106B1F71ECEEB
:10076000F2E06F0E711CF50160817181072E000CA3
:10077000880B990B97CF102F8537A9F41F7E2AE09D
:1007800030E0350117FF2FC0F4E06F0E711CF5014A
:100790006081718182819381A4010E949D0AA82EAB
:1007A000A8181F7792CF197F8F36D1F048F488357B
:1007B00091F0F601868197812F96E2E10C94FF0873
:1007C000803739F08837A9F714FD146020E130E054
:1007D000D8CF1061F9CF04FD166020E132E0D1CF0F
:1007E00028E030E0CECFF2E06F0E711CF5016081A1
:1007F000718190E080E0D0CF02FD02C0B3947DCF44
:10080000B394B3947ACF802F867809F476CFF6CF5D
:10081000B60180E290E00E941A0AB394B514C0F3C6
:10082000E12C77CFE52CEB18B51408F472CFF8CF94
:10083000802F867809F47FCF8BE201FF80E207FDED
:100840008DE2B60190E075CFB60180E390E00E94A2
:100850001A0AFA9470CF8FEF9FEFAECF24E0E12C0D
:10086000251508F063CD84E053CD1F920F920FB68B
:100870000F9211242F938F939F9383ED90E3019711
:10088000F1F700C0000080919F019091A00121E04C
:1008900082279093A00180939F0183ED90E30197BD
:1008A000F1F700C000009F918F912F910F900FBE24
:1008B0000F901F9018951F920F920FB60F92112450
:1008C0008F931092A2011092A10183E68093AF0151
:1008D00017BC28988F910F900FBE0F901F901895FE
:1008E0008AB183748AB98BB18C6B8BB9569A5E9836
:1008F000209A289810928000E1E8F0E080818960D9
:10090000808383EC99E09093890080938800B19A6A
:10091000E9E6F0E080818C7F80838DB383608DBBBE
:1009200081E884BD82E085BD1092B0000895809179
:10093000AD019091AE0101969093AE018093AD010F
:100940008091AD019091AE01883E934069F0809115
:10095000A4018C3399F08091B0018C33B9F080916F
:10096000A7018831D9F008958091A4018F5F809309
:10097000A4011092AE011092AD01E9CF8091B001B7
:100980008F5F8093B0011092A401E5CF8091A70101
:100990008F5F8093A7011092B001E1CF1092A70161
:1009A000E2CF8091A1019091A201019709F00895F1
:1009B00080919C0190919D01019690939D0180935F
:1009C0009C0180919C0190919D01883E9340E9F1AA
:1009D0008091A301811119C08091A801882341F061
:1009E0008091A80181508093A8018BE38093A3019B
:1009F0008091A8018C3348F48091A801882329F0C4
:100A00008091A80181508093A8018091A801811153
:100A1000CECF8091AF01882341F08091AF0181500A
:100A20008093AF018BE38093A8018091AF018D3358
:100A300008F0BDCF8091AF01882309F4B8CF809131
:100A4000AF0181508093AF01B2CF8091A3018C336D
:100A500070F48091A301882351F08091A30181500B
:100A60008093A30110929D0110929C01B1CF8091BF
:100A7000A3018111F7CF8091A801882399F3809178
:100A8000A80181508093A8018BE38093A301EACF52
:100A90000F931F93CF93DF93CDB7DEB764970FB655
:100AA000F894DEBF0FBECDBF2091A4019091B0019C
:100AB0008091A7011F922F931F929F931F928F9354
:100AC0008EE091E09F938F938E010F5F1F4F1F93D6
:100AD0000F930E947A0A1F930F938DE191E09F93E9
:100AE0008F9380E091E09F938F930E94080A0FB646
:100AF000F894DEBF0FBECDBF64960FB6F894DEBF8C
:100B00000FBECDBFDF91CF911F910F9108950F932D
:100B10001F93CF93DF93CDB7DEB764970FB6F894EA
:100B2000DEBF0FBECDBF2091A3019091A80180919F
:100B3000AF011F922F931F929F931F928F938EE06E
:100B400091E09F938F938E010F5F1F4F1F930F9321
:100B50000E947A0A1F930F9388E291E09F938F93EC
:100B600080E091E09F938F930E94080A0FB6F8945B
:100B7000DEBF0FBECDBF64960FB6F894DEBF0FBECA
:100B8000CDBFDF91CF911F910F910895B19BFECF03
:100B9000B19A9091A6018091A401981789F0809153
:100BA000A4018C3309F447C020E031E042E050E07A
:100BB00061E070E083E391E00E944A0A0E944805E8
:100BC000F8948091A4018093A601789490919E015D
:100BD0008091A301981709F438C08091A3018B3349
:100BE00079F120E031E042E050E061E070E086E33E
:100BF00091E00E944A0A0E948705F8948091A3011F
:100C000080939E017894F8940E9497040E94D104E6
:100C10008091A1019091A201892B19F483E6809320
:100C2000AF0178948091A1019091A201019709F4FC
:100C30005DC028980895F8941092A6017894B4CFD6
:100C4000F89480939E017894CCCF8091AF0181116C
:100C50000EC08091A80181110AC08091A301811169
:100C600006C08091A1019091A201019749F1809164
:100C7000AF0181110EC08091A80181110AC080913D
:100C8000A301811106C08091A1019091A201892B3D
:100C900011F18091AF01833609F0AFCF8091A101AE
:100CA0009091A201892B09F0A8CF20E031E04BE020
:100CB00050E061E070E087E491E00E944A0A9DCF35
:100CC00020E031E04DE050E061E070E089E391E048
:100CD0000E944A0A92CF20E031E04BE050E061E010
:100CE00070E087E491E00E944A0A87CF289A08952D
:100CF0008091AB019091AC01019709F44BC08091B8
:100D0000AB019091AC01892B11F41092A3014F9982
:100D100010C083ED90E30197F1F700C000008091CF
:100D2000A9019091AA0121E082279093AA018093C2
:100D3000A9014C9910C083ED90E30197F1F700C031
:100D400000008091AB019091AC0121E0822790934B
:100D5000AC018093AB014D9948C08091AB0190915B
:100D6000AC01892B09F041C083ED90E30197F1F7C5
:100D700000C000008091A9019091AA01892B69F41B
:100D80008091AF01873148F48091AF018F5F8093EC
:100D9000AF012BC01092A401B2CF8091A901909114
:100DA000AA01892B21F48091AF01873169F08091EC
:100DB000A9019091AA01892B51F48091AF01893149
:100DC00030F01092AF0111C01092AF010EC08091AF
:100DD000A9019091AA01019709F451C08091A9013C
:100DE0009091AA01019709F455C04D9907C08091CF
:100DF000AB019091AC01019709F454C08091AF010F
:100E0000833671F08091AF01811104C08091A801F7
:100E1000882331F081E090E09093A2018093A101BA
:100E20008FE493EC0197F1F700C000008091AB01D3
:100E30009091AC01892B39F48091A9019091AA017C
:100E4000892B09F471C08091AB019091AC01892B81
:100E500039F48091A9019091AA01019709F479C010
:100E60008091AB019091AC01019709F487C080910A
:100E7000AB019091AC01019709F49CC00895809159
:100E8000A8018B3308F0AACF8091A8018F5F8093CF
:100E9000A801ABCF8091A8018B3309F0A6CF1092A7
:100EA000A801A3CF83ED90E30197F1F700C0000004
:100EB0008091A9019091AA01892B51F48091A701F9
:100EC000873130F48091A7018F5F8093A70196CF7F
:100ED0008091A9019091AA01892B21F48091A70109
:100EE0008731A9F08091A9019091AA01019791F011
:100EF0008091A9019091AA01019709F07FCF80917B
:100F0000B0018B3309F07ACF1092B00177CF1092F5
:100F1000A70174CF8091B0018B3350F78091B0015D
:100F20008F5F8093B0016ACF8091AF011F928F9342
:100F300083E591E09F938F9380E091E09F938F935F
:100F40000E94080A0F900F900F900F900F900F9033
:100F50007ACF8091A8011F928F9385E691E09F93AD
:100F60008F9380E091E09F938F930E94080A0F90E7
:100F70000F900F900F900F900F9072CF8091A9015A
:100F80009091AA01892B09F072CF8091A7011F923D
:100F90008F9388E791E09F938F9380E091E09F93F8
:100FA0008F930E94080A0F900F900F900F900F9050
:100FB0000F905DCF8091A9019091AA01019709F04E
:100FC0005DCF8091B0011F928F9388E891E09F934D
:100FD0008F9380E091E09F938F930E94080A0F9077
:100FE0000F900F900F900F900F9048CF0E947004B9
:100FF00078940E94A40820E031E042E050E061E0F3
:1010000070E089E991E00E944A0AC7E202C00E94AA
:10101000780680919F019091A001892BC1F70E94D1
:10102000C6058091AF018111F4CF8091A801811193
:10103000F0CF8091A3018111ECCF8091A10190911B
:10104000A201019731F7C7BDE4CF5998611108C0DB
:10105000589898B1907F892B88B9449A44980895FC
:10106000589AF7CF599A97B1907F97B981110BC0D1
:101070005898449A000086B1449897B19F6097B9F8
:1010800059988F700895589AF4CFCF93DF93C82F53
:10109000D62F82958F700E9425086D2F8C2F8F7010
:1010A0000E942508DF91CF910895CF93DF93C82F39
:1010B0000E943208D82FD295D07F8C2F0E94320800
:1010C0008D2BDF91CF91089580E00E9455088823F1
:1010D000DCF30895509A519A3C9A87B18F6087B992
:1010E0008EE994E20197F1F700C0000060E083E030
:1010F0000E94250882E09AE00197F1F7000060E085
:1011000083E00E94250893E59A95F1F7000060E0DE
:1011100083E00E9425088FE18A95F1F760E082E084
:101120000E94250880E00E94640860E088E20E9436
:10113000450880E00E94640860E088E00E9445085D
:1011400080E00E94640808950E946A0860E081E0DF
:101150000E94450881E00E94640860E086E00E94E9
:10116000450880E00E94640860E08EE00E94450827
:1011700080E00E9464080895CF93C82F8091A50154
:10118000811111C0CB3139F481E08093A50190E049
:1011900080E0CF91089580E00E94640861E08C2F88
:1011A0000E944508F4CF80E00E94640860E08C2F24
:1011B0000E944508C43018F01092A501E8CF81E0E4
:1011C0000E946408F9CF2F923F924F925F926F92E4
:1011D0007F928F929F92AF92BF92CF92DF92EF92C7
:1011E000FF920F931F93CF93DF93CDB7DEB7CA1B48
:1011F000DB0B0FB6F894DEBF0FBECDBF09942A8873
:10120000398848885F846E847D848C849B84AA841A
:10121000B984C884DF80EE80FD800C811B81AA81A7
:10122000B981CE0FD11D0FB6F894DEBF0FBECDBF72
:10123000ED010895283008F027E03327DA01990FEF
:10124000311D87FD916000966105710539F43260AA
:101250002E5F3D9330E32A95E1F708959F3F30F0EC
:1012600080387105610509F03C5F3C5F3D9391302A
:1012700008F08068911DDF93CF931F930F93FF9227
:10128000EF92192F987F9695E92F96959695E90FED
:10129000FF27E653FF4F99273327EE24FF24A701AA
:1012A000E70105900894079428F4360FE71EF81E0E
:1012B000491F511D660F771F881F991F0694A1F7BC
:1012C0000590079428F4E70EF81E491F561FC11D0C
:1012D000770F881F991F661F0694A1F70590079442
:1012E00028F4F80E491F561FC71FD11D880F991FDC
:1012F000661F771F0694A1F70590079420F4490F05
:10130000561FC71FD81F990F661F771F881F069487
:10131000A9F784911095177041F0D695C795579508
:101320004795F794E7941A95C1F7E0E7F0E06894E1
:101330001590159135916591959105907FE2739582
:10134000E118F10A430B560BC90BD009C0F7E10CA9
:10135000F11E431F561FC91FD01D7EF4703311F4B8
:101360008A95E6CFE894015030F0080F0AF4002780
:10137000021708F4202F2395022F7A3328F079E3FF
:101380007D932A95E9F710C07D932A9589F60694F6
:1013900097956795379517951794E118F10A430BC0
:1013A000560BC90BD00998F023957E9173957A332B
:1013B00008F070E37C932013B8F77E9170617D9301
:1013C00030F0839571E37D9370E32A95E1F7112462
:1013D000EF90FF900F911F91CF91DF91992787FD9B
:1013E00090950895FC010590615070400110D8F768
:1013F000809590958E0F9F1F0895FC01615070405D
:1014000001900110D8F7809590958E0F9F1F089539
:10141000B0E0A0E0EEE0FAE00C94F308AE01475F24
:101420005F4F6F8178858D819E810E94D400E2E0BC
:101430000C940F090F931F93CF93DF93182F092F4D
:10144000EB018B8181FD09C01FEF0FEF812F902FE2
:10145000DF91CF911F910F91089582FF14C02E81CB
:101460003F818C819D81281739073CF4E881F981FF
:10147000CF0101969983888310838E819F81019685
:101480009F838E83E3CFE885F985812F0995892B8A
:10149000A1F3DACFB0E0A0E0E0E5FAE00C94E908CF
:1014A0005B014A017901D90113962C91D0E0C0E08B
:1014B00021FF1AC0C815D905B9F08C016C01CA0CFE
:1014C000DB1C0CC00F5F1F4FD7011896ED91FC91EC
:1014D000B701DC018C910995892B31F4C8010C15F9
:1014E0001D0581F72196E6CFCE01CDB7DEB7ECE042
:1014F0000C940509AEE0B0E0E0E8FAE00C94F108E5
:101500000D891E8986E08C831A8309838FEF9FE7FC
:101510009E838D83AE01475E5F4F6F89788DCE01CC
:1015200001960E94D4002F813885020F131FF80105
:1015300010822E96E4E00C940D09FA01AA272830B7
:1015400051F1203181F1E8946F936E7F6E5F7F4F90
:101550008F4F9F4FAF4FB1E03ED0B4E03CD0670F0C
:10156000781F891F9A1FA11D680F791F8A1F911D5F
:10157000A11D6A0F711D811D911DA11D20D009F4AF
:1015800068943F912AE0269F11243019305D3193F1
:10159000DEF6CF010895462F4770405D4193B3E0DA
:1015A0000FD0C9F7F6CF462F4F70405D4A3318F081
:1015B000495D31FD4052419302D0A9F7EACFB4E032
:1015C000A6959795879577956795BA95C9F70097EA
:1015D0006105710508959B01AC010A2E069457958B
:1015E000479537952795BA95C9F7620F731F841FE2
:0A15F000951FA01D0895F894FFCF89
:1015FA000000000200000000BC08000000002530C6
:10160A0032753A253032753A2530327500436C6F9F
:10161A00636B202020257300416C61726D202020AD
:10162A002573001B01001BC0001BC0526573657443
:10163A0020416C61726D001BC053657420416C615E
:10164A00726D001B012020416C6D20486F7572730A
:10165A003A202575001B0120416C6D204D696E757D
:10166A007465733A202575001B0120202020486FDD
:10167A007572733A202575001B012020204D696E72
:0C168A00757465733A202575001B0C0078
:00000001FF
