:100000000C94B5000C9435040C945B040C94D20051
:100010000C94D2000C94D2000C94D2000C94D20018
:100020000C94D2000C94D2000C94D2000C94D20008
:100030000C94D2000C94D2000C94D2000C94D200F8
:100040000C94D2000C94D2000C94D2000C94D200E8
:100050000C94D2000C94D2000C94D2000C94D200D8
:100060000C94D2000C94D2006E616E00696E660032
:1000700000407A10F35A00A0724E18090010A5D45F
:10008000E80000E87648170000E40B54020000CABC
:100090009A3B000000E1F505000080969800000002
:1000A00040420F000000A086010000001027000061
:1000B0000000E803000000006400000000000A00E7
:1000C000000000000100000000002C76D888DC67EA
:1000D0004F0823DFC1DFAE59E1B1B796E5E3E45342
:1000E000C63AE651997696E8E6C28426EB898C9B5F
:1000F00062ED407C6FFCEFBC9C9F40F2BAA56FA5FF
:10010000F490055A2AF75C936B6CF9676DC11BFC80
:10011000E0E40D47FEF520E6B500D0ED902E03009B
:10012000943577050080841E080000204E0A0000E8
:1001300000C80C333333330F986E12831141EF8DA7
:100140002114893BE65516CFFEE6DB18D1844B38E7
:100150001BF77C1D901DA4BBE424203284725E2218
:100160008100C9F124ECA1E53D2711241FBECFEF8A
:10017000D8E0DEBFCDBF11E0A0E0B1E0E6E1F3E101
:1001800002C005900D92A635B107D9F721E0A6E58A
:10019000B1E001C01D92AB36B207E1F70E948E06B6
:1001A0000C9489090C940000AFE0B0E0EAEDF0E0B7
:1001B0000C9471076C011B015A01FC011782168215
:1001C000838181FF48C39E012F5F3F4F4901F601A4
:1001D0009381F10193FD859193FF81911F01882304
:1001E00009F4E7C2853239F493FD859193FF81913B
:1001F0001F01853239F4B60190E00E94A80835014C
:100200005301E5CFF12C512C00E0003238F48B3251
:1002100009F190F48032F9F0833209F107FD34C01E
:1002200020ED280F2A3020F506FF1BC0FAE0FF9EC4
:10023000200D1124F22E05C08D3279F0803371F734
:100240000160F10193FD859193FF81911F0181115F
:10025000DCCF1AC002600460F4CF0860F2CF006106
:10026000F0CF3AE0539E200D1124522E0062E9CFC8
:100270008E3221F406FD9DC20064E3CF8C3611F46A
:100280000068DFCF8836E9F29BEB980F933008F0D7
:100290005FC00061805E06FD02C046E0F42E102FB4
:1002A0001F73853609F05BC0106417FF61C08F2D86
:1002B0009BE39F1508F48BE344244394480E27E006
:1002C0003501F4E06F0E711CF5016081718182814E
:1002D0009381042DA4010E94A8075C01F981FC8789
:1002E000F0FF03C00DE2F3FF07C00BE211FD04C0F5
:1002F000012F047012FD00E22C852C70E22E09F40F
:1003000057C00111ABC2F3E0E12CF515A0F483E076
:10031000E52CE81A13FD08C0B60180E290E00E94C7
:10032000A808EA94E110F8CF002329F0B601802F45
:1003300090E00E94A8083C8528E6A22E20E0B22E7C
:1003400033FD04C09CE6A92E90E0B92E107122C0A6
:100350009BE9980F933008F033C10F7E9CCF86360F
:1003600011F41068A2CFFF2009F49FCFFA949DCF1B
:10037000E7E02F2DEF1518F427E037E0F32E412C9E
:100380009FCF11118052B60190E00E94A8088FEF14
:10039000A81AB80AF50184918111F3CFEE2009F46F
:1003A0002FCFB60180E290E00E94A808EA94F6CF31
:1003B00017FF6FC04A0CFC85F4FF04C08A818133AB
:1003C00009F44A9414140CF086C028E0241510F4A3
:1003D00088E0482E85E090E017FF06C0C501B7FE13
:1003E00002C090E080E0019601110196FF2031F0FB
:1003F0002F2D30E02F5F3F4F820F931F58161906A5
:1004000019F014F0E52CE81A812F897011F4E1102D
:1004100067C0002329F0B601802F90E00E94A80851
:1004200013FD02C0E11063C017FF7CC08501B7FE59
:1004300002C010E000E0C501841991092C016F2D64
:1004400070E0EE27FF27E61BF70BFF87EE870F3FD5
:10045000100729F4B6018EE290E00E94A808A016C9
:10046000B1060CF44BC0401651060CF047C0F50124
:10047000E01BF10BE80DF91D8181015011092E855A
:100480003F8502171307E4F1B60190E00E94A80827
:10049000DECF16FD9FCFEF2DF0E0EA15FB0534F01F
:1004A0003CEFA3163FEFB3060CF010683296E80D50
:1004B000F91D01C0FA94FF2019F082918033D1F325
:1004C00017FF88CF442443944F0CFA141B0431F0D7
:1004D0002CF0FA187FCF442443947CCFF12C7ACFB0
:1004E000B60180E290E00E94A808EA9490CFB6019D
:1004F00080E390E00E94A808EA9494CF80E3BDCF07
:10050000A016B10641F49A81963350F4953319F44C
:100510003C8534FF05C0B60190E00E94A8083ECF9C
:1005200081E3F9CF8A81813319F09C859F7E9C8776
:10053000B60190E00E94A808FF20A9F0B6018EE263
:1005400090E00E94A808F394F394E2E001E00E0F1B
:10055000E80DF92DF11D8081B60190E00E94A808F8
:10056000E02F0F11F3CF85E690E014FF02C085E481
:1005700090E0B6010E94A808B7FC06C0A114B1041F
:10058000C1F4EC85E4FF15C0B194A194B1088DE2EB
:10059000B60190E00E94A80880E32AE0A216B10408
:1005A00054F4B60190E00E94A808B601C501C096B7
:1005B000B4CF8BE2EDCF8F5FFAE0AF1AB108EDCF89
:1005C0008336C9F0833771F1833509F05BC035019B
:1005D000F2E06F0E711CF501A080B1806F2D70E00C
:1005E00006FD02C06FEF7FEFC5010E9480089D8766
:1005F0008C8700680DC0350132E0630E711CF50177
:100600008081898321E030E03D872C8754010F777A
:1006100003FD06C02C853D855216130609F0A8F48B
:10062000E52C2BC0350132E0630E711CF501A08072
:10063000B1806F2D70E006FD02C06FEF7FEFC50146
:100640000E948B089D878C87E2CFB60180E290E004
:100650000E94A8085A94DECFF50107FD859107FF97
:1006600081915F01B60190E00E94A808E110EA9430
:100670008C859D8501979D878C87EC85FD85EF2B6B
:1006800059F78CCE843619F0893609F074C03501DB
:1006900007FF66C0F4E06F0E711CF5016081718187
:1006A00082819381102F1F7697FF08C090958095C7
:1006B000709561957F4F8F4F9F4F10682AE030E013
:1006C000A4010E942B09A82EA818BA2C012F16FFEE
:1006D0000AC00E7FAF1438F414FF04C012FD02C02C
:1006E000012F0E7EBF2C04FF8EC0FE01EA0DF11D0E
:1006F0008081803309F080C0097EF02FF870EF2EE2
:1007000003FD90C000FF8AC0FA2CB51410F4F50C5C
:10071000FB1804FF8DC0B60180E390E00E94A8089A
:1007200002FF09C088E790E001FF02C088E590E081
:10073000B6010E94A808AF1408F486C0AA940A2D36
:1007400010E00F5F1F4F080D191DF80182918F01F6
:10075000B60190E00E94A80880169106B1F71ECE5F
:10076000F2E06F0E711CF50160817181072E000CA3
:10077000880B990B97CF102F8537A9F41F7E2AE09D
:1007800030E0350117FF2FC0F4E06F0E711CF5014A
:100790006081718182819381A4010E942B09A82E1E
:1007A000A8181F7792CF197F8F36D1F048F488357B
:1007B00091F0F601868197812F96E2E10C948D07E6
:1007C000803739F08837A9F714FD146020E130E054
:1007D000D8CF1061F9CF04FD166020E132E0D1CF0F
:1007E00028E030E0CECFF2E06F0E711CF5016081A1
:1007F000718190E080E0D0CF02FD02C0B3947DCF44
:10080000B394B3947ACF802F867809F476CFF6CF5D
:10081000B60180E290E00E94A808B394B514C0F33A
:10082000E12C77CFE52CEB18B51408F472CFF8CF94
:10083000802F867809F47FCF8BE201FF80E207FDED
:100840008DE2B60190E075CFB60180E390E00E94A2
:10085000A808FA9470CF8FEF9FEFAECF24E0E12C81
:10086000251508F063CD84E053CD1F920F920FB68B
:100870000F9211242F938F939F9383ED90E3019711
:10088000F1F700C000008091590190915A0121E0D8
:10089000822790935A018093590183ED90E3019749
:1008A000F1F700C000009F918F912F910F900FBE24
:1008B0000F901F9018951F920F920FB60F92112450
:1008C0008F9310925C0110925B0183E68093690123
:1008D00017BC28988F910F900FBE0F901F901895FE
:1008E0008AB183748AB98BB18C6B8BB9569A5E9836
:1008F000209A289810928000E1E8F0E080818960D9
:10090000808383EC99E09093890080938800B19A6A
:10091000E9E6F0E080818C7F80838DB383608DBBBE
:1009200081E884BD8AE085BD1092B0000895809171
:100930006701909168010196909368018093670127
:100940008091670190916801883E934069F08091A1
:100950005E018C3399F080916A018C33B9F08091FB
:1009600063018831D9F0089580915E018F5F809393
:100970005E011092680110926701E9CF80916A01CF
:100980008F5F80936A0110925E01E5CF80916301D1
:100990008F5F8093630110926A01E1CF109263012F
:1009A000E2CF80915B0190915C010197A1F0809171
:1009B000690181110FC08091640181110BC0809188
:1009C0005D01811107C080915B0190915C010197ED
:1009D00009F471C0089580915601909157010196D4
:1009E0009093570180935601809156019091570141
:1009F000883E9340E9F180915D01811119C0809199
:100A00006401882341F080916401815080936401E6
:100A10008BE380935D01809164018C3348F4809175
:100A20006401882329F080916401815080936401DE
:100A3000809164018111BBCF80916901882341F0CD
:100A4000809169018150809369018BE380936401F7
:100A5000809169018D3308F0AACF809169018823C4
:100A600009F4A5CF809169018150809369019FCFDE
:100A700080915D018C3370F480915D01882351F089
:100A800080915D01815080935D0110925701109219
:100A90005601B1CF80915D018111F7CF8091640142
:100AA000882399F3809164018150809364018BE3E2
:100AB00080935D01EACF8AEF87BD8CCF0F931F93A0
:100AC000CF93DF93CDB7DEB764970FB6F894DEBF50
:100AD0000FBECDBF20915E0190916A0180916301AC
:100AE0001F922F931F929F931F928F938EE091E0FE
:100AF0009F938F938E010F5F1F4F1F930F930E9441
:100B000008091F930F938DE191E09F938F9380E0ED
:100B100091E09F938F930E9496080FB6F894DEBFE2
:100B20000FBECDBF64960FB6F894DEBF0FBECDBF2B
:100B3000DF91CF911F910F9108950F931F93CF9342
:100B4000DF93CDB7DEB764970FB6F894DEBF0FBE64
:100B5000CDBF20915D0190916401809169011F9248
:100B60002F931F929F931F928F938EE091E09F93FC
:100B70008F938E010F5F1F4F1F930F930E940809E1
:100B80001F930F9388E291E09F938F9380E091E011
:100B90009F938F930E9496080FB6F894DEBF0FBE06
:100BA000CDBF64960FB6F894DEBF0FBECDBFDF9108
:100BB000CF911F910F910895B19BFECFB19A909163
:100BC000600180915E01981789F080915E018C33FD
:100BD00009F447C020E031E042E050E061E070E01D
:100BE00083E391E00E94D8080E945E05F89480910A
:100BF0005E018093600178949091580180915D012D
:100C0000981709F438C080915D018B3379F120E0A9
:100C100031E042E050E061E070E086E391E00E9464
:100C2000D8080E949D05F89480915D018093580139
:100C30007894F8940E9497040E94D10480915B01FB
:100C400090915C01892B19F483E680936901789473
:100C500080915B0190915C01019709F45DC0289837
:100C60000895F894109260017894B4CFF89480932A
:100C700058017894CCCF8091690181110EC0809188
:100C8000640181110AC080915D01811106C08091CB
:100C90005B0190915C01019749F18091690181119B
:100CA0000EC08091640181110AC080915D018111A3
:100CB00006C080915B0190915C01892B11F18091BC
:100CC0006901833609F0AFCF80915B0190915C019F
:100CD000892B09F0A8CF20E031E04BE050E061E043
:100CE00070E087E491E00E94D8089DCF20E031E0D9
:100CF0004DE050E061E070E089E391E00E94D808A7
:100D000092CF20E031E04BE050E061E070E087E41A
:100D100091E00E94D80887CF289A089581E090E05A
:100D200090935C0180935B011092640182E3809355
:100D30005D010E94700478940E94320720E031E047
:100D400042E050E061E070E083E591E00E94D80865
:100D50008091590190915A01892BD1F70E94DC05AD
:100D6000F7CF5998611108C0589898B1907F892B96
:100D700088B9449A44980895589AF7CF599A97B1E8
:100D8000907F97B981110BC05898449A000086B1A2
:100D9000449897B19F6097B959988F700895589A61
:100DA000F4CFCF93DF93C82FD62F82958F700E94F8
:100DB000B1066D2F8C2F8F700E94B106DF91CF91FD
:100DC0000895CF93DF93C82F0E94BE06D82FD295E7
:100DD000D07F8C2F0E94BE068D2BDF91CF9108957E
:100DE00080E00E94E1068823DCF30895509A519A2E
:100DF0003C9A87B18F6087B985EA9EE00197F1F749
:100E000000C0000060E083E00E94B10680E094E052
:100E10000197F1F700C0000060E083E00E94B10696
:100E200091E29A95F1F7000060E083E00E94B1063C
:100E30008CE08A95F1F7000060E082E00E94B10644
:100E400080E00E94F00660E088E20E94D10680E027
:100E50000E94F00660E088E00E94D10680E00E94D7
:100E6000F00608950E94F60660E081E00E94D10637
:100E700081E00E94F00660E086E00E94D10680E0FA
:100E80000E94F00660E08EE00E94D10680E00E94A1
:100E9000F0060895CF93C82F80915F01811111C092
:100EA000CB3139F481E080935F0190E080E0CF9115
:100EB000089580E00E94F00661E08C2F0E94D10628
:100EC000F4CF80E00E94F00660E08C2F0E94D106F3
:100ED000C43018F010925F01E8CF81E00E94F00664
:100EE000F9CF2F923F924F925F926F927F928F92A3
:100EF0009F92AF92BF92CF92DF92EF92FF920F93A9
:100F00001F93CF93DF93CDB7DEB7CA1BDB0B0FB6B2
:100F1000F894DEBF0FBECDBF09942A88398848886F
:100F20005F846E847D848C849B84AA84B984C88405
:100F3000DF80EE80FD800C811B81AA81B981CE0FFC
:100F4000D11D0FB6F894DEBF0FBECDBFED010895E1
:100F5000283008F027E03327DA01990F311D87FD8B
:100F6000916000966105710539F432602E5F3D9302
:100F700030E32A95E1F708959F3F30F080387105FE
:100F8000610509F03C5F3C5F3D93913008F080685B
:100F9000911DDF93CF931F930F93FF92EF92192F21
:100FA000987F9695E92F96959695E90FFF27E6533A
:100FB000FF4F99273327EE24FF24A701E70105906F
:100FC0000894079428F4360FE71EF81E491F511D98
:100FD000660F771F881F991F0694A1F70590079445
:100FE00028F4E70EF81E491F561FC11D770F881FF2
:100FF000991F661F0694A1F70590079428F4F80E30
:10100000491F561FC71FD11D880F991F661F771FC5
:101010000694A1F70590079420F4490F561FC71FA7
:10102000D81F990F661F771F881F0694A9F7849110
:101030001095177041F0D695C79557954795F79439
:10104000E7941A95C1F7E0E7F0E0689415901591E0
:1010500035916591959105907FE27395E118F10ABC
:10106000430B560BC90BD009C0F7E10CF11E431F0F
:10107000561FC91FD01D7EF4703311F48A95E6CF38
:10108000E894015030F0080F0AF40027021708F422
:10109000202F2395022F7A3328F079E37D932A9528
:1010A000E9F710C07D932A9589F606949795679580
:1010B000379517951794E118F10A430B560BC90B96
:1010C000D00998F023957E9173957A3308F070E3F8
:1010D0007C932013B8F77E9170617D9330F08395F7
:1010E00071E37D9370E32A95E1F71124EF90FF906F
:1010F0000F911F91CF91DF91992787FD90950895CA
:10110000FC010590615070400110D8F780959095D2
:101110008E0F9F1F0895FC016150704001900110D7
:10112000D8F7809590958E0F9F1F0895B0E0A0E0AE
:10113000ECE9F8E00C948107AE01475F5F4F6F81E7
:1011400078858D819E810E94D400E2E00C949D07F9
:101150000F931F93CF93DF93182F092FEB018B81F0
:1011600081FD09C01FEF0FEF812F902FDF91CF91ED
:101170001F910F91089582FF14C02E813F818C81B1
:101180009D81281739073CF4E881F981CF01019648
:101190009983888310838E819F8101969F838E839C
:1011A000E3CFE885F985812F0995892BA1F3DACF63
:1011B000B0E0A0E0EEEDF8E00C9477075B014A01A7
:1011C0007901D90113962C91D0E0C0E021FF1AC01B
:1011D000C815D905B9F08C016C01CA0CDB1C0CC018
:1011E0000F5F1F4FD7011896ED91FC91B701DC01FD
:1011F0008C910995892B31F4C8010C151D0581F7D7
:101200002196E6CFCE01CDB7DEB7ECE00C94930784
:10121000AEE0B0E0EEE0F9E00C947F070D891E89A6
:1012200086E08C831A8309838FEF9FE79E838D83EB
:10123000AE01475E5F4F6F89788DCE0101960E94A7
:10124000D4002F813885020F131FF80110822E96CB
:10125000E4E00C949B07FA01AA27283051F12031D1
:1012600081F1E8946F936E7F6E5F7F4F8F4F9F4F3A
:10127000AF4FB1E03ED0B4E03CD0670F781F891F7C
:101280009A1FA11D680F791F8A1F911DA11D6A0F4A
:10129000711D811D911DA11D20D009F468943F91FD
:1012A0002AE0269F11243019305D3193DEF6CF01FC
:1012B0000895462F4770405D4193B3E00FD0C9F7C2
:1012C000F6CF462F4F70405D4A3318F0495D31FD2F
:1012D0004052419302D0A9F7EACFB4E0A695979582
:1012E000879577956795BA95C9F700976105710558
:1012F00008959B01AC010A2E0694579547953795A2
:101300002795BA95C9F7620F731F841F951FA01DFB
:061310000895F894FFCFE0
:1013160000000002000000004A070000000025301F
:1013260032753A253032753A2530327500436C6F86
:10133600636B202020257300416C61726D20202094
:101346002573001B01001BC0001BC052657365742A
:1013560020416C61726D001BC053657420416C6145
:06136600726D001B0C007B
:00000001FF
