:100000000C94B5000C9435040C9410050C94D2009B
:100010000C94D2000C94D2000C94D2000C94D20018
:100020000C94D2000C94D2000C94D2000C94D20008
:100030000C94D2000C94D2000C94D2000C94D200F8
:100040000C94D2000C94D2000C94D2000C94D200E8
:100050000C94D2000C94D2000C94D2000C94D200D8
:100060000C94D2000C94D2006E616E00696E660032
:1000700000407A10F35A00A0724E18090010A5D45F
:10008000E80000E87648170000E40B54020000CABC
:100090009A3B000000E1F505000080969800000002
:1000A00040420F000000A086010000001027000061
:1000B0000000E803000000006400000000000A00E7
:1000C000000000000100000000002C76D888DC67EA
:1000D0004F0823DFC1DFAE59E1B1B796E5E3E45342
:1000E000C63AE651997696E8E6C28426EB898C9B5F
:1000F00062ED407C6FFCEFBC9C9F40F2BAA56FA5FF
:10010000F490055A2AF75C936B6CF9676DC11BFC80
:10011000E0E40D47FEF520E6B500D0ED902E03009B
:10012000943577050080841E080000204E0A0000E8
:1001300000C80C333333330F986E12831141EF8DA7
:100140002114893BE65516CFFEE6DB18D1844B38E7
:100150001BF77C1D901DA4BBE424203284725E2218
:100160008100C9F124ECA1E53D2711241FBECFEF8A
:10017000D8E0DEBFCDBF11E0A0E0B1E0E2E8F3E1FE
:1001800002C005900D92AC33B107D9F721E0ACE382
:10019000B1E001C01D92AF34B207E1F70E948D06B5
:1001A0000C94BF090C940000AFE0B0E0EAEDF0E081
:1001B0000C94A7076C011B015A01FC0117821682DF
:1001C000838181FF48C39E012F5F3F4F4901F601A4
:1001D0009381F10193FD859193FF81911F01882304
:1001E00009F4E7C2853239F493FD859193FF81913B
:1001F0001F01853239F4B60190E00E94DE08350116
:100200005301E5CFF12C512C00E0003238F48B3251
:1002100009F190F48032F9F0833209F107FD34C01E
:1002200020ED280F2A3020F506FF1BC0FAE0FF9EC4
:10023000200D1124F22E05C08D3279F0803371F734
:100240000160F10193FD859193FF81911F0181115F
:10025000DCCF1AC002600460F4CF0860F2CF006106
:10026000F0CF3AE0539E200D1124522E0062E9CFC8
:100270008E3221F406FD9DC20064E3CF8C3611F46A
:100280000068DFCF8836E9F29BEB980F933008F0D7
:100290005FC00061805E06FD02C046E0F42E102FB4
:1002A0001F73853609F05BC0106417FF61C08F2D86
:1002B0009BE39F1508F48BE344244394480E27E006
:1002C0003501F4E06F0E711CF5016081718182814E
:1002D0009381042DA4010E94DE075C01F981FC8753
:1002E000F0FF03C00DE2F3FF07C00BE211FD04C0F5
:1002F000012F047012FD00E22C852C70E22E09F40F
:1003000057C00111ABC2F3E0E12CF515A0F483E076
:10031000E52CE81A13FD08C0B60180E290E00E94C7
:10032000DE08EA94E110F8CF002329F0B601802F0F
:1003300090E00E94DE083C8528E6A22E20E0B22E46
:1003400033FD04C09CE6A92E90E0B92E107122C0A6
:100350009BE9980F933008F033C10F7E9CCF86360F
:1003600011F41068A2CFFF2009F49FCFFA949DCF1B
:10037000E7E02F2DEF1518F427E037E0F32E412C9E
:100380009FCF11118052B60190E00E94DE088FEFDE
:10039000A81AB80AF50184918111F3CFEE2009F46F
:1003A0002FCFB60180E290E00E94DE08EA94F6CFFB
:1003B00017FF6FC04A0CFC85F4FF04C08A818133AB
:1003C00009F44A9414140CF086C028E0241510F4A3
:1003D00088E0482E85E090E017FF06C0C501B7FE13
:1003E00002C090E080E0019601110196FF2031F0FB
:1003F0002F2D30E02F5F3F4F820F931F58161906A5
:1004000019F014F0E52CE81A812F897011F4E1102D
:1004100067C0002329F0B601802F90E00E94DE081B
:1004200013FD02C0E11063C017FF7CC08501B7FE59
:1004300002C010E000E0C501841991092C016F2D64
:1004400070E0EE27FF27E61BF70BFF87EE870F3FD5
:10045000100729F4B6018EE290E00E94DE08A01693
:10046000B1060CF44BC0401651060CF047C0F50124
:10047000E01BF10BE80DF91D8181015011092E855A
:100480003F8502171307E4F1B60190E00E94DE08F1
:10049000DECF16FD9FCFEF2DF0E0EA15FB0534F01F
:1004A0003CEFA3163FEFB3060CF010683296E80D50
:1004B000F91D01C0FA94FF2019F082918033D1F325
:1004C00017FF88CF442443944F0CFA141B0431F0D7
:1004D0002CF0FA187FCF442443947CCFF12C7ACFB0
:1004E000B60180E290E00E94DE08EA9490CFB60167
:1004F00080E390E00E94DE08EA9494CF80E3BDCFD1
:10050000A016B10641F49A81963350F4953319F44C
:100510003C8534FF05C0B60190E00E94DE083ECF66
:1005200081E3F9CF8A81813319F09C859F7E9C8776
:10053000B60190E00E94DE08FF20A9F0B6018EE22D
:1005400090E00E94DE08F394F394E2E001E00E0FE5
:10055000E80DF92DF11D8081B60190E00E94DE08C2
:10056000E02F0F11F3CF85E690E014FF02C085E481
:1005700090E0B6010E94DE08B7FC06C0A114B104E9
:10058000C1F4EC85E4FF15C0B194A194B1088DE2EB
:10059000B60190E00E94DE0880E32AE0A216B104D2
:1005A00054F4B60190E00E94DE08B601C501C09681
:1005B000B4CF8BE2EDCF8F5FFAE0AF1AB108EDCF89
:1005C0008336C9F0833771F1833509F05BC035019B
:1005D000F2E06F0E711CF501A080B1806F2D70E00C
:1005E00006FD02C06FEF7FEFC5010E94B6089D8730
:1005F0008C8700680DC0350132E0630E711CF50177
:100600008081898321E030E03D872C8754010F777A
:1006100003FD06C02C853D855216130609F0A8F48B
:10062000E52C2BC0350132E0630E711CF501A08072
:10063000B1806F2D70E006FD02C06FEF7FEFC50146
:100640000E94C1089D878C87E2CFB60180E290E0CE
:100650000E94DE085A94DECFF50107FD859107FF61
:1006600081915F01B60190E00E94DE08E110EA94FA
:100670008C859D8501979D878C87EC85FD85EF2B6B
:1006800059F78CCE843619F0893609F074C03501DB
:1006900007FF66C0F4E06F0E711CF5016081718187
:1006A00082819381102F1F7697FF08C090958095C7
:1006B000709561957F4F8F4F9F4F10682AE030E013
:1006C000A4010E946109A82EA818BA2C012F16FFB8
:1006D0000AC00E7FAF1438F414FF04C012FD02C02C
:1006E000012F0E7EBF2C04FF8EC0FE01EA0DF11D0E
:1006F0008081803309F080C0097EF02FF870EF2EE2
:1007000003FD90C000FF8AC0FA2CB51410F4F50C5C
:10071000FB1804FF8DC0B60180E390E00E94DE0864
:1007200002FF09C088E790E001FF02C088E590E081
:10073000B6010E94DE08AF1408F486C0AA940A2D00
:1007400010E00F5F1F4F080D191DF80182918F01F6
:10075000B60190E00E94DE0880169106B1F71ECE29
:10076000F2E06F0E711CF50160817181072E000CA3
:10077000880B990B97CF102F8537A9F41F7E2AE09D
:1007800030E0350117FF2FC0F4E06F0E711CF5014A
:100790006081718182819381A4010E946109A82EE8
:1007A000A8181F7792CF197F8F36D1F048F488357B
:1007B00091F0F601868197812F96E2E10C94C307B0
:1007C000803739F08837A9F714FD146020E130E054
:1007D000D8CF1061F9CF04FD166020E132E0D1CF0F
:1007E00028E030E0CECFF2E06F0E711CF5016081A1
:1007F000718190E080E0D0CF02FD02C0B3947DCF44
:10080000B394B3947ACF802F867809F476CFF6CF5D
:10081000B60180E290E00E94DE08B394B514C0F304
:10082000E12C77CFE52CEB18B51408F472CFF8CF94
:10083000802F867809F47FCF8BE201FF80E207FDED
:100840008DE2B60190E075CFB60180E390E00E94A2
:10085000DE08FA9470CF8FEF9FEFAECF24E0E12C4B
:10086000251508F063CD84E053CD1F920F920FB68B
:100870000F9211242F938F939F93E09AE9981092EF
:100880004C011092470110924101109240011092C8
:1008900043011092420110923F0110923E0120C08C
:1008A0008091420190914301892B21F480914C0168
:1008B0008731E9F180914201909143010197D1F193
:1008C00080914201909143010197F1F14D9906C049
:1008D00080914001909141010197F1F14B9B78C0CB
:1008E0004C9981C04E990AC0809142019091430178
:1008F00021E0822790934301809342014D99E6CFF6
:100900008091400190914101892B01F78091420132
:1009100090914301892B21F680914C01873108F099
:10092000BFCF80914C018F5F80934C01CFCF10924D
:100930004C01CCCF809147018B3310F68091470159
:100940008F5F80934701C2CF809147018B3309F0BD
:10095000BDCF10924701BACF8091420190914301DF
:10096000892B51F480914601873130F48091460102
:100970008F5F80934601B2CF8091420190914301F5
:10098000892B21F4809146018731A9F080914201A1
:1009900090914301019791F0809142019091430120
:1009A000019709F09BCF80914D018B3309F096CFD1
:1009B00010924D0193CF1092460190CF80914D013E
:1009C0008B3350F780914D018F5F80934D0186CF1F
:1009D000809140019091410121E082279093410153
:1009E000809340017DCF8091400190914101892BFE
:1009F00071F480914C01811104C0809147018823DA
:100A000031F081E090E090933F0180933E01E99ABC
:100A10009F918F912F910F900FBE0F901F9018955F
:100A20001F920F920FB60F9211248F9310923F01D5
:100A300010923E0183E680934C0117BC28982B98B6
:100A40008F910F900FBE0F901F9018958AB18374ED
:100A50008AB98BB18C6B8BB9569A5E98239A2B9876
:100A600010928000E1E8F0E080818960808383EC6F
:100A700099E09093890080938800B19AE9E6F0E0CC
:100A800080818C7F80838DB383608DBB81E884BD42
:100A90008AE085BD089580914801909149010196B1
:100AA00090934901809348018091480190914901B8
:100AB000883E934069F080914E018C3399F080918B
:100AC0004D018C33B9F0809146018831D9F00895F9
:100AD00080914E018F5F80934E01109249011092D8
:100AE0004801E9CF80914D018F5F80934D011092B5
:100AF0004E01E5CF809146018F5F809346011092B1
:100B00004D01E1CF10924601E2CF80914A019091D0
:100B10004B01019690934B0180934A0180914A01C9
:100B200090914B01883E934009F44DC0809145015E
:100B3000811119C080914701882341F080914701BC
:100B40008150809347018BE3809345018091470159
:100B50008C3348F480914701882329F08091470124
:100B600081508093470180914701811119C0809184
:100B70004C01882341F080914C01815080934C01BD
:100B80008BE38093470180914C018D3348F4809131
:100B90004C01882329F080914C01815080934C01B5
:100BA00080914C0181110EC08091470181110AC0D2
:100BB00080914501811106C080913E0190913F01D5
:100BC000019721F10895809145018C3370F4809153
:100BD0004501882351F08091450181508093450162
:100BE00010924B0110924A01A1CF809145018111D1
:100BF000F7CF80914701882399F380914701815075
:100C0000809347018BE380934501EACF8EE487BD53
:100C1000D9CF0F931F93CF93DF93CDB7DEB76497F0
:100C20000FB6F894DEBF0FBECDBF8EE091E0898392
:100C300020914E0190914D01809146011F922F937A
:100C40001F929F931F928F9380E191E09F938F93C8
:100C50008E010F5F1F4F1F930F930E943E091F933A
:100C60000F938FE191E09F938F9380E091E09F93AA
:100C70008F930E94CC080FB6F894DEBF0FBECDBF95
:100C800064960FB6F894DEBF0FBECDBFDF91CF9153
:100C90001F910F9108950F931F93CF93DF93CDB7BB
:100CA000DEB764970FB6F894DEBF0FBECDBF8EE0FF
:100CB00091E08983209145019091470180914C01F9
:100CC0001F922F931F929F931F928F9380E191E029
:100CD0009F938F938E010F5F1F4F1F930F930E945F
:100CE0003E091F930F938AE291E09F938F9380E0D8
:100CF00091E09F938F930E94CC080FB6F894DEBFCB
:100D00000FBECDBF64960FB6F894DEBF0FBECDBF49
:100D1000DF91CF911F910F9108950E9426050E94A7
:100D20006807789481E0809347018EE180934501C4
:100D3000CBE320C010923D012AC020E031E042E028
:100D400050E061E070E088E391E00E940E090E94AB
:100D50004B068091450180933C01F8940E944B051D
:100D60000E948505789480913E0190913F01019702
:100D700061F12B98B19BFECFB19A90913D0180918A
:100D80004E01981781F080914E018C3399F220E04A
:100D900031E042E050E061E070E085E391E00E94E4
:100DA0000E090E94090680914E0180933D019091A9
:100DB0003C0180914501981761F2809145018B3388
:100DC00009F0BBCFC0933C01B8CF2B9AD3CF599831
:100DD000611108C0589898B1907F892B88B9449ABE
:100DE00044980895589AF7CF599A97B1907F97B938
:100DF00081110BC05898449A000086B1449897B16D
:100E00009F6097B959988F700895589AF4CFCF93EF
:100E1000DF93C82FD62F82958F700E94E7066D2F23
:100E20008C2F8F700E94E706DF91CF910895CF93AA
:100E3000DF93C82F0E94F406D82FD295D07F8C2F35
:100E40000E94F4068D2BDF91CF91089580E00E94DF
:100E500017078823DCF30895509A519A3C9A87B17A
:100E60008F6087B985EA9EE00197F1F700C0000026
:100E700060E083E00E94E70680E094E00197F1F7EC
:100E800000C0000060E083E00E94E70691E29A95CE
:100E9000F1F7000060E083E00E94E7068CE08A95AD
:100EA000F1F7000060E082E00E94E70680E00E9427
:100EB000260760E088E20E94070780E00E9426077C
:100EC00060E088E00E94070780E00E9426070895FE
:100ED0000E942C0760E081E00E94070781E00E94E9
:100EE000260760E086E00E94070780E00E94260750
:100EF00060E08EE00E94070780E00E9426070895C8
:100F0000CF93C82F80914401811111C0CB3139F4A6
:100F100081E08093440190E080E0CF91089580E0EB
:100F20000E94260761E08C2F0E940707F4CF80E023
:100F30000E94260760E08C2F0E940707C43018F03B
:100F400010924401E8CF81E00E942607F9CF2F924A
:100F50003F924F925F926F927F928F929F92AF9249
:100F6000BF92CF92DF92EF92FF920F931F93CF9396
:100F7000DF93CDB7DEB7CA1BDB0B0FB6F894DEBF2D
:100F80000FBECDBF09942A88398848885F846E8453
:100F90007D848C849B84AA84B984C884DF80EE809D
:100FA000FD800C811B81AA81B981CE0FD11D0FB6A6
:100FB000F894DEBF0FBECDBFED010895283008F0D4
:100FC00027E03327DA01990F311D87FD91600096E4
:100FD0006105710539F432602E5F3D9330E32A9547
:100FE000E1F708959F3F30F080387105610509F001
:100FF0003C5F3C5F3D93913008F08068911DDF932A
:10100000CF931F930F93FF92EF92192F987F96958E
:10101000E92F96959695E90FFF27E653FF4F9927FD
:101020003327EE24FF24A701E701059008940794D5
:1010300028F4360FE71EF81E491F511D660F771F53
:10104000881F991F0694A1F70590079428F4E70ECE
:10105000F81E491F561FC11D770F881F991F661F55
:101060000694A1F70590079428F4F80E491F561F1F
:10107000C71FD11D880F991F661F771F0694A1F700
:101080000590079420F4490F561FC71FD81F990FCA
:10109000661F771F881F0694A9F784911095177013
:1010A00041F0D695C79557954795F794E7941A95CB
:1010B000C1F7E0E7F0E068941590159135916591DE
:1010C000959105907FE27395E118F10A430B560B59
:1010D000C90BD009C0F7E10CF11E431F561FC91FF1
:1010E000D01D7EF4703311F48A95E6CFE894015058
:1010F00030F0080F0AF40027021708F4202F239578
:10110000022F7A3328F079E37D932A95E9F710C00E
:101110007D932A9589F60694979567953795179547
:101120001794E118F10A430B560BC90BD00998F03C
:1011300023957E9173957A3308F070E37C932013A6
:10114000B8F77E9170617D9330F0839571E37D9364
:1011500070E32A95E1F71124EF90FF900F911F9112
:10116000CF91DF91992787FD90950895FC01059017
:10117000615070400110D8F7809590958E0F9F1F99
:101180000895FC016150704001900110D8F78095DE
:1011900090958E0F9F1F0895B0E0A0E0E2EDF8E07B
:1011A0000C94B707AE01475F5F4F6F8178858D81E3
:1011B0009E810E94D400E2E00C94D3070F931F930A
:1011C000CF93DF93182F092FEB018B8181FD09C08D
:1011D0001FEF0FEF812F902FDF91CF911F910F9174
:1011E000089582FF14C02E813F818C819D81281734
:1011F00039073CF4E881F981CF010196998388830E
:1012000010838E819F8101969F838E83E3CFE88533
:10121000F985812F0995892BA1F3DACFB0E0A0E001
:10122000E4E1F9E00C94AD075B014A017901D901D1
:1012300013962C91D0E0C0E021FF1AC0C815D90543
:10124000B9F08C016C01CA0CDB1C0CC00F5F1F4F86
:10125000D7011896ED91FC91B701DC018C910995AD
:10126000892B31F4C8010C151D0581F72196E6CFB5
:10127000CE01CDB7DEB7ECE00C94C907AEE0B0E02C
:10128000E4E4F9E00C94B5070D891E8986E08C83AF
:101290001A8309838FEF9FE79E838D83AE01475E9C
:1012A0005F4F6F89788DCE0101960E94D4002F8107
:1012B0003885020F131FF80110822E96E4E00C947B
:1012C000D107FA01AA27283051F1203181F1E894A1
:1012D0006F936E7F6E5F7F4F8F4F9F4FAF4FB1E029
:1012E0003ED0B4E03CD0670F781F891F9A1FA11D24
:1012F000680F791F8A1F911DA11D6A0F711D811D25
:10130000911DA11D20D009F468943F912AE0269FE9
:1013100011243019305D3193DEF6CF010895462F48
:101320004770405D4193B3E00FD0C9F7F6CF462F29
:101330004F70405D4A3318F0495D31FD4052419392
:1013400002D0A9F7EACFB4E0A6959795879577954F
:101350006795BA95C9F700976105710508959B01D6
:10136000AC010A2E06945795479537952795BA955F
:10137000C9F7620F731F841F951FA01D0895F8946D
:02138000FFCF9D
:1013820000000002000000008007000000000000D2
:10139200253032753A253032753A253032750043A0
:1013A2006C6F636B202020257300416C61726D208D
:0C13B20020202573001B01001BC0000060
:00000001FF
