:100000000C94B5000C9451040C9477040C94D20019
:100010000C94D2000C94D2000C94D2000C94D20018
:100020000C94D2000C94D2000C94D2000C94D20008
:100030000C94D2000C94D2000C94D2000C94D200F8
:100040000C94D2000C94D2000C94D2000C94D200E8
:100050000C94D2000C94D2000C94D2000C94D200D8
:100060000C94D2000C94D2006E616E00696E660032
:1000700000407A10F35A00A0724E18090010A5D45F
:10008000E80000E87648170000E40B54020000CABC
:100090009A3B000000E1F505000080969800000002
:1000A00040420F000000A086010000001027000061
:1000B0000000E803000000006400000000000A00E7
:1000C000000000000100000000002C76D888DC67EA
:1000D0004F0823DFC1DFAE59E1B1B796E5E3E45342
:1000E000C63AE651997696E8E6C28426EB898C9B5F
:1000F00062ED407C6FFCEFBC9C9F40F2BAA56FA5FF
:10010000F490055A2AF75C936B6CF9676DC11BFC80
:10011000E0E40D47FEF520E6B500D0ED902E03009B
:10012000943577050080841E080000204E0A0000E8
:1001300000C80C333333330F986E12831141EF8DA7
:100140002114893BE65516CFFEE6DB18D1844B38E7
:100150001BF77C1D901DA4BBE424203284725E2218
:100160008100C9F124ECA1E53D2711241FBECFEF8A
:10017000D8E0DEBFCDBF11E0A0E0B1E0E4EFF5E1F3
:1001800002C005900D92AC39B107D9F721E0ACE976
:10019000B1E001C01D92A13BB207E1F70E94E30765
:1001A0000C94F80A0C940000A0E1B0E0EAEDF0E055
:1001B0000C94D1087C011B016A01FC011782168294
:1001C000838181FF44C39E012F5F3F4F3901F701B7
:1001D0009381F10193FD859193FF81911F01882304
:1001E00009F431C3853239F493FD859193FF8191F0
:1001F0001F01853239F4B70190E00E94080A5601C8
:100200006501E5CF10E0512C912CFFE1F915D8F0F4
:100210008B3279F038F4803279F08332A1F4F92D01
:10022000F0612EC08D3261F0803369F4292D216098
:100230002DC0392D3260932E892D8460982E2AC0CE
:10024000E92DE86015C097FC2DC020ED280F2A305D
:1002500088F496FE06C03AE0139F200D1124122F59
:1002600019C08AE0589E200D1124522EE92DE0621B
:100270009E2E10C08E3231F496FCE5C2F92DF0644A
:100280009F2E08C08C3621F4292D2068922E02C0A2
:10029000883641F4F10193FD859193FF81911F010F
:1002A0008111B3CF9BEB980F933020F4992D90617F
:1002B000805E07C09BE9980F933008F066C1992DC6
:1002C0009F7E96FF16E09F73992E853619F49064F1
:1002D000992E08C0863621F4392F3068932E02C03B
:1002E0001111115097FE07C01C3350F4442443945D
:1002F000410E27E00BC0183038F027E017E005C0AA
:1003000027E09CE3492E02C0212F412C560184E0B6
:10031000A80EB11CF6016081718182819381042D48
:10032000A3010E9408096C01F981FC87F0FF02C05B
:10033000F3FF06C091FC06C092FE06C000E205C0B5
:100340000DE203C00BE201C000E08C858C7019F057
:1003500001115AC29BC297FE10C04C0CFC85F4FFE1
:1003600004C08A81813309F44A94141474F528E096
:10037000241578F588E0482E2CC096FC2AC0812FE1
:1003800090E08C159D059CF03CEFC3163FEFD30623
:1003900074F0892D8068982E0AC0E2E0F0E0EC0F3E
:1003A000FD1FE10FF11D8081803319F411501111EF
:1003B000F4CF97FE0EC044244394410E812F90E069
:1003C000C816D9062CF41C1904C04424439401C057
:1003D00010E097FE06C01C141D0434F4C6010196FB
:1003E00005C085E090E002C081E090E00111019637
:1003F000112331F0212F30E02F5F3F4F820F931FE9
:10040000252D30E08217930714F4581A01C0512C9F
:10041000892D897049F4552039F0B70180E290E0C8
:100420000E94080A5A94F7CF002329F0B701802FC1
:1004300090E00E94080A93FC09C0552039F0B701EA
:1004400080E390E00E94080A5A94F7CF97FE4CC0D0
:100450004601D7FE02C0812C912CC601881999094A
:10046000F301E80FF91FFE87ED8796012419310982
:10047000388B2F87012F10E01195019511093FEF5F
:100480008316930629F4B7018EE290E00E94080AD1
:10049000C814D9044CF08F8598898815990524F4DF
:1004A000ED85FE85818101C080E3F1E08F1A91081E
:1004B0002D853E852F5F3F4F3E872D878016910605
:1004C0002CF0B70190E00E94080AD9CFC814D904D3
:1004D00041F49A81963320F4953319F43C8534FF26
:1004E00081E3B70190E04EC08A81813319F09C8589
:1004F0009F7E9C87B70190E00E94080A111105C0F9
:1005000094FC18C085E690E017C0B7018EE290E039
:100510000E94080A1E5F82E001E0080FF301E80F65
:10052000F11D8081B70190E00E94080A802F01131D
:10053000F3CFE6CF85E490E0B7010E94080AD7FC2C
:1005400006C0C114D10441F4EC85E4FF05C0D19488
:10055000C194D1088DE201C08BE2B70190E00E9406
:10056000080A80E32AE0C216D1042CF08F5FFAE07B
:10057000CF1AD108F7CFB70190E00E94080AB7015F
:10058000C601C0960E94080A54C1833631F08337F1
:1005900079F0833509F056C020C0560132E0A30E31
:1005A000B11CF6018081898301E010E0630112C073
:1005B0005601F2E0AF0EB11CF601C080D18096FE6C
:1005C00003C0612F70E002C06FEF7FEFC6010E9491
:1005D000EB098C01F92DFF7714C0560122E0A20E21
:1005E000B11CF601C080D18096FE03C0612F70E07F
:1005F00002C06FEF7FEFC6010E94E0098C01F92D68
:10060000F0689F2EF3FD1AC0852D90E0081719079A
:10061000A8F4B70180E290E00E94080A5A94F4CF4F
:10062000F60197FC859197FE81916F01B70190E0EB
:100630000E94080A51105A94015011090115110520
:1006400079F7F7C0843611F0893661F5560197FEC7
:1006500009C024E0A20EB11CF60160817181828183
:1006600093810AC0F2E0AF0EB11CF6016081718186
:10067000072E000C880B990BF92DFF769F2E97FF04
:1006800009C090958095709561957F4F8F4F9F4FD2
:10069000F0689F2E2AE030E0A3010E949A0AC82E3B
:1006A000C6183FC0092D853721F40F7E2AE030E0BF
:1006B0001DC0097F8F3691F018F4883559F0C3C0FA
:1006C000803719F0883711F0BEC0006104FF09C0FF
:1006D000046007C094FE08C0066006C028E030E051
:1006E00005C020E130E002C020E132E0560107FF02
:1006F00009C084E0A80EB11CF6016081718182817D
:10070000938108C0F2E0AF0EB11CF60160817181E7
:1007100080E090E0A3010E949A0AC82EC6180F77C5
:10072000902E96FE0BC0092D0E7FC11650F494FE3C
:100730000AC092FC08C0092D0E7E05C0DC2C092DD4
:1007400003C0DC2C01C0D12E04FF0DC0FE01EC0D56
:10075000F11D8081803311F4097E09C002FF06C0BB
:10076000D394D39404C0802F867809F0D39403FDEA
:1007700011C000FF06C01C2DD51480F4150D1D19E5
:100780000DC0D51458F4B70180E290E00E94080A29
:10079000D394F7CFD51410F45D1801C0512C04FF89
:1007A00010C0B70180E390E00E94080A02FF17C062
:1007B00001FD03C088E790E002C088E590E0B70142
:1007C0000CC0802F867859F001FF02C08BE201C077
:1007D00080E207FD8DE2B70190E00E94080AC11691
:1007E00038F4B70180E390E00E94080A1150F7CF77
:1007F000CA94F301EC0DF11D8081B70190E00E94D5
:10080000080AC110F5CF15C0F4E0F51560F584E0D5
:10081000581A93FE1FC0011127C02C8523FF2AC040
:1008200008E610E0392D3071932EF8018491811182
:1008300024C0552009F4E4CCB70180E290E00E9486
:10084000080A5A94F6CFF7018681978126C08FEF68
:100850009FEF23C0B70180E290E00E94080A5A94FB
:100860005110F8CFD8CF512CB701802F90E00E94C3
:10087000080AD3CF0CE610E0D5CF91108052B70113
:1008800090E00E94080A0F5F1F4FCFCF23E025158D
:1008900010F483E0BDCF512CC0CF6096E2E10C9400
:1008A000ED081F920F920FB60F9211242F938F9382
:1008B0009F9383ED90E30197F1F700C000008091D2
:1008C0009F019091A00121E082279093A001809345
:1008D0009F0183ED90E30197F1F700C000009F9125
:1008E0008F912F910F900FBE0F901F9018951F9210
:1008F0000F920FB60F9211248F931092A2011092B3
:10090000A10183E68093AF0117BC28988F910F90C7
:100910000FBE0F901F9018958AB183748AB98BB15E
:100920008C6B8BB9569A5E98209A2898109280000A
:10093000E1E8F0E080818960808383EC99E0909326
:10094000890080938800B19AE9E6F0E080818C7F8D
:1009500080838DB383608DBB81E884BD82E085BDDB
:100960001092B00008958091AD019091AE01019672
:100970009093AE018093AD018091AD019091AE0155
:10098000883E934049F48091A4018F5F8093A40135
:100990001092AE011092AD018091A4018C3339F414
:1009A0008091B0018F5F8093B0011092A40180917B
:1009B000B0018C3339F48091A7018F5F8093A70138
:1009C0001092B0018091A701883111F41092A70113
:1009D00008958091A1019091A201019709F06CC046
:1009E00080919C0190919D01019690939D0180932F
:1009F0009C0180919C0190919D01883E934011F54E
:100A00008091A3018C3350F48091A301882331F0AD
:100A10008091A30181508093A30110C08091A30114
:100A200081110CC08091A801882341F08091A80118
:100A300081508093A8018BE38093A30110929D01C4
:100A400010929C018091A301811119C08091A8018D
:100A5000882341F08091A80181508093A8018BE305
:100A60008093A3018091A8018C3348F48091A80160
:100A7000882329F08091A80181508093A80180915A
:100A8000A801811119C08091AF01882341F08091A4
:100A9000AF0181508093AF018BE38093A8018091D7
:100AA000AF018D3348F48091AF01882329F0809104
:100AB000AF0181508093AF0108950F931F93CF939F
:100AC000DF93CDB7DEB764970FB6F894DEBF0FBEE5
:100AD000CDBF2091A4019091B0018091A7011F92F8
:100AE0002F931F929F931F928F938EE091E09F937D
:100AF0008F938E010F5F1F4F1F930F930E94780AF1
:100B00001F930F938DE191E09F938F9380E091E08D
:100B10009F938F930E94F6090FB6F894DEBF0FBE25
:100B2000CDBF64960FB6F894DEBF0FBECDBFDF9188
:100B3000CF911F910F9108950F931F93CF93DF9340
:100B4000CDB7DEB764970FB6F894DEBF0FBECDBF4A
:100B50002091A3019091A8018091AF011F922F9342
:100B60001F929F931F928F938EE091E09F938F939C
:100B70008E010F5F1F4F1F930F930E94780A1F93E0
:100B80000F9388E291E09F938F9380E091E09F9391
:100B90008F930E94F6090FB6F894DEBF0FBECDBF4B
:100BA00064960FB6F894DEBF0FBECDBFDF91CF9134
:100BB0001F910F910895B19BFECFB19A9091A6011C
:100BC0008091A4019817A1F08091A4018C3321F4A5
:100BD000F8941092A601789420E031E042E050E0D1
:100BE00061E070E083E391E00E94440A0E945D05A9
:100BF000F8948091A4018093A601789490919E012D
:100C00008091A3019817A9F08091A3018B3321F45F
:100C1000F89480939E01789420E031E042E050E027
:100C200061E070E086E391E00E94440A0E949C0526
:100C30004EC08091AF01811119C08091A80181112E
:100C400015C08091A301811111C08091A1019091E3
:100C5000A201019759F420E031E04DE050E061E05D
:100C600070E089E391E00E94440A31C08091AF01B5
:100C7000811119C08091A801811115C08091A30133
:100C8000811111C08091A1019091A201892B59F489
:100C900020E031E04BE050E061E070E087E491E07B
:100CA0000E94440A14C08091AF01833681F4809180
:100CB000A1019091A201892B51F420E031E04BE099
:100CC00050E061E070E087E491E00E94440AF8940B
:100CD0008091A30180939E017894F8940E94B304BC
:100CE0000E94E9048091A1019091A201892B19F43D
:100CF00083E68093AF0178948091A1019091A20145
:100D0000019711F4289A0895289808954F9910C0D2
:100D100089E698E10197F1F700C000008091A901F0
:100D20009091AA0121E082279093AA018093A901C2
:100D30004C9910C089E698E10197F1F700C00000D6
:100D40008091AB019091AC0121E082279093AC019E
:100D50008093AB014D9953C08091AB019091AC0150
:100D6000892B09F04CC089E698E10197F1F700C0A2
:100D700000008091A9019091AA01892B51F48091E2
:100D8000AF01873130F48091AF018F5F8093AF0165
:100D900036C08091A9019091AA01892B39F48091E4
:100DA000AF01873119F41092AF0129C08091A901D8
:100DB0009091AA01892B39F48091AF01893118F003
:100DC0001092AF011CC08091A9019091AA010197D6
:100DD00051F48091A8018B3330F48091A8018F5F8A
:100DE0008093A8010CC08091A9019091AA0101975C
:100DF00031F48091A8018B3311F41092A8014D9920
:100E000046C08091AB019091AC01019709F03FC0C1
:100E100089E698E10197F1F700C000008091A901EF
:100E20009091AA01892B51F48091A701873130F468
:100E30008091A7018F5F8093A70129C08091A901AC
:100E40009091AA01892B39F48091A701873119F477
:100E50001092A7011CC08091A9019091AA0101974D
:100E600051F48091B0018B3330F48091B0018F5FE9
:100E70008093B0010CC08091A9019091AA010197C3
:100E800031F48091B0018B3311F41092B001809154
:100E9000AF01833671F08091AF01811104C0809160
:100EA000A801882331F081E090E09093A201809323
:100EB000A1019FE32DE083E0915020408040E1F7C5
:100EC00000C000008091AB019091AC01892BD1F45E
:100ED0008091A9019091AA01892BA1F48091AF0181
:100EE0001F928F9383E591E09F938F9380E091E031
:100EF0009F938F930E94F6090F900F900F900F9081
:100F00000F900F908091AB019091AC01892BD1F49F
:100F10008091A9019091AA010197A1F48091A80163
:100F20001F928F9385E691E09F938F9380E091E0ED
:100F30009F938F930E94F6090F900F900F900F9040
:100F40000F900F908091AB019091AC010197D1F47B
:100F50008091A9019091AA01892BA1F48091A70108
:100F60001F928F9388E791E09F938F9380E091E0A9
:100F70009F938F930E94F6090F900F900F900F9000
:100F80000F900F908091AB019091AC010197D1F43B
:100F90008091A9019091AA010197A1F48091B001DB
:100FA0001F928F9388E891E09F938F9380E091E068
:100FB0009F938F930E94F6090F900F900F900F90C0
:100FC0000F900F9008950E948C0478940E949308CB
:100FD00020E031E042E050E061E070E089E991E03A
:100FE0000E94440AC7E280919F019091A001892B41
:100FF000B1F40E94DB058091AF018111F4CF8091A3
:10100000A8018111F0CF8091A3018111ECCF8091D3
:10101000A1019091A201019731F7C7BDE4CF0E94D1
:101020008606E1CF5998662311F0589A01C0589866
:1010300098B1907F892B88B9449A44980895599A19
:1010400097B1907F97B9882311F0589A01C05898AA
:10105000449A000086B1449897B19F6097B9599817
:101060008F700895CF93DF93C82FD62F82958F70FE
:101070000E9412086D2F8C2F8F700E941208DF9132
:10108000CF910895CF93DF93C82F0E941F08D82FC8
:10109000D295D07F8C2F0E941F088D2BDF91CF918E
:1010A000089580E00E9442088823DCF30895509A56
:1010B000519A3C9A87B18F6087B985EA9EE0019783
:1010C000F1F700C0000060E083E00E94120880E0B9
:1010D00094E00197F1F700C0000060E083E00E9417
:1010E000120891E29A95F1F7000060E083E00E9417
:1010F00012088CE08A95F1F7000060E082E00E941F
:10110000120880E00E94510860E088E20E943208E4
:1011100080E00E94510860E088E00E94320880E090
:101120000E94510808950E94570860E081E00E94E3
:10113000320881E00E94510860E086E00E94320897
:1011400080E00E94510860E08EE00E94320880E05A
:101150000E9451080895CF93C82F8091A501811155
:101160000EC0CB3121F481E08093A50116C080E050
:101170000E94510861E08C2F0E9432080EC080E06E
:101180000E94510860E08C2F0E943208C43018F48D
:1011900081E00E9451081092A50180E090E0CF917B
:1011A00008952F923F924F925F926F927F928F920B
:1011B0009F92AF92BF92CF92DF92EF92FF920F93E6
:1011C0001F93CF93DF93CDB7DEB7CA1BDB0B0FB6F0
:1011D000F894DEBF0FBECDBF09942A8839884888AD
:1011E0005F846E847D848C849B84AA84B984C88443
:1011F000DF80EE80FD800C811B81AA81B981CE0F3A
:10120000D11D0FB6F894DEBF0FBECDBFED0108951E
:10121000283008F027E03327DA01990F311D87FDC8
:10122000916000966105710539F432602E5F3D933F
:1012300030E32A95E1F708959F3F30F0803871053B
:10124000610509F03C5F3C5F3D93913008F0806898
:10125000911DDF93CF931F930F93FF92EF92192F5E
:10126000987F9695E92F96959695E90FFF27E65377
:10127000FF4F99273327EE24FF24A701E7010590AC
:101280000894079428F4360FE71EF81E491F511DD5
:10129000660F771F881F991F0694A1F70590079482
:1012A00028F4E70EF81E491F561FC11D770F881F2F
:1012B000991F661F0694A1F70590079428F4F80E6D
:1012C000491F561FC71FD11D880F991F661F771F03
:1012D0000694A1F70590079420F4490F561FC71FE5
:1012E000D81F990F661F771F881F0694A9F784914E
:1012F0001095177041F0D695C79557954795F79477
:10130000E7941A95C1F7E0E7F0E06894159015911D
:1013100035916591959105907FE27395E118F10AF9
:10132000430B560BC90BD009C0F7E10CF11E431F4C
:10133000561FC91FD01D7EF4703311F48A95E6CF75
:10134000E894015030F0080F0AF40027021708F45F
:10135000202F2395022F7A3328F079E37D932A9565
:10136000E9F710C07D932A9589F6069497956795BD
:10137000379517951794E118F10A430B560BC90BD3
:10138000D00998F023957E9173957A3308F070E335
:101390007C932013B8F77E9170617D9330F0839534
:1013A00071E37D9370E32A95E1F71124EF90FF90AC
:1013B0000F911F91CF91DF91992787FD9095089507
:1013C000FC010590615070400110D8F78095909510
:1013D0008E0F9F1F0895FC01615070400190011015
:1013E000D8F7809590958E0F9F1F0895A0E0B0E0EC
:1013F000ECEFF9E00C94E108AE01475F5F4F6F81BD
:1014000078858D819E810E94D400E2E00C94FD08D5
:101410000F931F93CF93DF93FB01238121FD03C023
:101420008FEF9FEF2CC022FF16C046815781248189
:1014300035814217530744F4A081B1819D012F5F8C
:101440003F4F318320838C93268137812F5F3F4F1D
:101450003783268314C08B01EC01FB010084F185E6
:10146000E02D0995892BE1F6D80116968D919C9176
:101470001797019617969C938E931697CE01DF913E
:10148000CF911F910F910895A0E0B0E0EAE4FAE057
:101490000C94D7085B014A017901D90113962C916C
:1014A00021FF1DC0C0E0D0E0C815D905D9F08C01DE
:1014B0006C01CA0CDB1CC8010C151D0571F00F5F17
:1014C0001F4FD7011896ED91FC911997B701DC01D8
:1014D0008C910995892B79F305C02196E5CF80E0A1
:1014E00090E001C0CE01CDB7DEB7ECE00C94F3087C
:1014F000AEE0B0E0EEE7FAE00C94DF080D891E895B
:1015000086E08C831A8309838FEF9FE79E838D8308
:10151000AE01475E5F4F6F89788DCE0101960E94C4
:10152000D400EF81F885E00FF11F10822E96E4E0E1
:101530000C94FB08FA01AA27283051F1203181F1DF
:10154000E8946F936E7F6E5F7F4F8F4F9F4FAF4FCB
:10155000B1E03ED0B4E03CD0670F781F891F9A1FDE
:10156000A11D680F791F8A1F911DA11D6A0F711D92
:10157000811D911DA11D20D009F468943F912AE09E
:10158000269F11243019305D3193DEF6CF01089586
:10159000462F4770405D4193B3E00FD0C9F7F6CFB7
:1015A000462F4F70405D4A3318F0495D31FD40527F
:1015B000419302D0A9F7EACFB4E0A6959795879515
:1015C00077956795BA95C9F70097610571050895F4
:1015D0009B01AC010A2E06945795479537952795A0
:1015E000BA95C9F7620F731F841F951FA01D089538
:0415F000F894FFCF9D
:1015F4000000000200000000AB08000000002530DD
:1016040032753A253032753A2530327500436C6FA5
:10161400636B202020257300416C61726D202020B3
:101624002573001B01001BC0001BC0526573657449
:1016340020416C61726D001BC053657420416C6164
:10164400726D001B012020416C6D20486F75727310
:101654003A202575001B0120416C6D204D696E7583
:101664007465733A202575001B0120202020486FE3
:101674007572733A202575001B012020204D696E78
:0C168400757465733A202575001B0C007E
:00000001FF
