:100000000C94B5000C9435040C9410050C94D2009B
:100010000C94D2000C94D2000C94D2000C94D20018
:100020000C94D2000C94D2000C94D2000C94D20008
:100030000C94D2000C94D2000C94D2000C94D200F8
:100040000C94D2000C94D2000C94D2000C94D200E8
:100050000C94D2000C94D2000C94D2000C94D200D8
:100060000C94D2000C94D2006E616E00696E660032
:1000700000407A10F35A00A0724E18090010A5D45F
:10008000E80000E87648170000E40B54020000CABC
:100090009A3B000000E1F505000080969800000002
:1000A00040420F000000A086010000001027000061
:1000B0000000E803000000006400000000000A00E7
:1000C000000000000100000000002C76D888DC67EA
:1000D0004F0823DFC1DFAE59E1B1B796E5E3E45342
:1000E000C63AE651997696E8E6C28426EB898C9B5F
:1000F00062ED407C6FFCEFBC9C9F40F2BAA56FA5FF
:10010000F490055A2AF75C936B6CF9676DC11BFC80
:10011000E0E40D47FEF520E6B500D0ED902E03009B
:10012000943577050080841E080000204E0A0000E8
:1001300000C80C333333330F986E12831141EF8DA7
:100140002114893BE65516CFFEE6DB18D1844B38E7
:100150001BF77C1D901DA4BBE424203284725E2218
:100160008100C9F124ECA1E53D2711241FBECFEF8A
:10017000D8E0DEBFCDBF11E0A0E0B1E0ECE6F3E1F6
:1001800002C005900D92A833B107D9F721E0A8E38A
:10019000B1E001C01D92AB34B207E1F70E948D06B9
:1001A0000C94B4090C940000AFE0B0E0EAEDF0E08C
:1001B0000C949C076C011B015A01FC0117821682EA
:1001C000838181FF48C39E012F5F3F4F4901F601A4
:1001D0009381F10193FD859193FF81911F01882304
:1001E00009F4E7C2853239F493FD859193FF81913B
:1001F0001F01853239F4B60190E00E94D308350121
:100200005301E5CFF12C512C00E0003238F48B3251
:1002100009F190F48032F9F0833209F107FD34C01E
:1002200020ED280F2A3020F506FF1BC0FAE0FF9EC4
:10023000200D1124F22E05C08D3279F0803371F734
:100240000160F10193FD859193FF81911F0181115F
:10025000DCCF1AC002600460F4CF0860F2CF006106
:10026000F0CF3AE0539E200D1124522E0062E9CFC8
:100270008E3221F406FD9DC20064E3CF8C3611F46A
:100280000068DFCF8836E9F29BEB980F933008F0D7
:100290005FC00061805E06FD02C046E0F42E102FB4
:1002A0001F73853609F05BC0106417FF61C08F2D86
:1002B0009BE39F1508F48BE344244394480E27E006
:1002C0003501F4E06F0E711CF5016081718182814E
:1002D0009381042DA4010E94D3075C01F981FC875E
:1002E000F0FF03C00DE2F3FF07C00BE211FD04C0F5
:1002F000012F047012FD00E22C852C70E22E09F40F
:1003000057C00111ABC2F3E0E12CF515A0F483E076
:10031000E52CE81A13FD08C0B60180E290E00E94C7
:10032000D308EA94E110F8CF002329F0B601802F1A
:1003300090E00E94D3083C8528E6A22E20E0B22E51
:1003400033FD04C09CE6A92E90E0B92E107122C0A6
:100350009BE9980F933008F033C10F7E9CCF86360F
:1003600011F41068A2CFFF2009F49FCFFA949DCF1B
:10037000E7E02F2DEF1518F427E037E0F32E412C9E
:100380009FCF11118052B60190E00E94D3088FEFE9
:10039000A81AB80AF50184918111F3CFEE2009F46F
:1003A0002FCFB60180E290E00E94D308EA94F6CF06
:1003B00017FF6FC04A0CFC85F4FF04C08A818133AB
:1003C00009F44A9414140CF086C028E0241510F4A3
:1003D00088E0482E85E090E017FF06C0C501B7FE13
:1003E00002C090E080E0019601110196FF2031F0FB
:1003F0002F2D30E02F5F3F4F820F931F58161906A5
:1004000019F014F0E52CE81A812F897011F4E1102D
:1004100067C0002329F0B601802F90E00E94D30826
:1004200013FD02C0E11063C017FF7CC08501B7FE59
:1004300002C010E000E0C501841991092C016F2D64
:1004400070E0EE27FF27E61BF70BFF87EE870F3FD5
:10045000100729F4B6018EE290E00E94D308A0169E
:10046000B1060CF44BC0401651060CF047C0F50124
:10047000E01BF10BE80DF91D8181015011092E855A
:100480003F8502171307E4F1B60190E00E94D308FC
:10049000DECF16FD9FCFEF2DF0E0EA15FB0534F01F
:1004A0003CEFA3163FEFB3060CF010683296E80D50
:1004B000F91D01C0FA94FF2019F082918033D1F325
:1004C00017FF88CF442443944F0CFA141B0431F0D7
:1004D0002CF0FA187FCF442443947CCFF12C7ACFB0
:1004E000B60180E290E00E94D308EA9490CFB60172
:1004F00080E390E00E94D308EA9494CF80E3BDCFDC
:10050000A016B10641F49A81963350F4953319F44C
:100510003C8534FF05C0B60190E00E94D3083ECF71
:1005200081E3F9CF8A81813319F09C859F7E9C8776
:10053000B60190E00E94D308FF20A9F0B6018EE238
:1005400090E00E94D308F394F394E2E001E00E0FF0
:10055000E80DF92DF11D8081B60190E00E94D308CD
:10056000E02F0F11F3CF85E690E014FF02C085E481
:1005700090E0B6010E94D308B7FC06C0A114B104F4
:10058000C1F4EC85E4FF15C0B194A194B1088DE2EB
:10059000B60190E00E94D30880E32AE0A216B104DD
:1005A00054F4B60190E00E94D308B601C501C0968C
:1005B000B4CF8BE2EDCF8F5FFAE0AF1AB108EDCF89
:1005C0008336C9F0833771F1833509F05BC035019B
:1005D000F2E06F0E711CF501A080B1806F2D70E00C
:1005E00006FD02C06FEF7FEFC5010E94AB089D873B
:1005F0008C8700680DC0350132E0630E711CF50177
:100600008081898321E030E03D872C8754010F777A
:1006100003FD06C02C853D855216130609F0A8F48B
:10062000E52C2BC0350132E0630E711CF501A08072
:10063000B1806F2D70E006FD02C06FEF7FEFC50146
:100640000E94B6089D878C87E2CFB60180E290E0D9
:100650000E94D3085A94DECFF50107FD859107FF6C
:1006600081915F01B60190E00E94D308E110EA9405
:100670008C859D8501979D878C87EC85FD85EF2B6B
:1006800059F78CCE843619F0893609F074C03501DB
:1006900007FF66C0F4E06F0E711CF5016081718187
:1006A00082819381102F1F7697FF08C090958095C7
:1006B000709561957F4F8F4F9F4F10682AE030E013
:1006C000A4010E945609A82EA818BA2C012F16FFC3
:1006D0000AC00E7FAF1438F414FF04C012FD02C02C
:1006E000012F0E7EBF2C04FF8EC0FE01EA0DF11D0E
:1006F0008081803309F080C0097EF02FF870EF2EE2
:1007000003FD90C000FF8AC0FA2CB51410F4F50C5C
:10071000FB1804FF8DC0B60180E390E00E94D3086F
:1007200002FF09C088E790E001FF02C088E590E081
:10073000B6010E94D308AF1408F486C0AA940A2D0B
:1007400010E00F5F1F4F080D191DF80182918F01F6
:10075000B60190E00E94D30880169106B1F71ECE34
:10076000F2E06F0E711CF50160817181072E000CA3
:10077000880B990B97CF102F8537A9F41F7E2AE09D
:1007800030E0350117FF2FC0F4E06F0E711CF5014A
:100790006081718182819381A4010E945609A82EF3
:1007A000A8181F7792CF197F8F36D1F048F488357B
:1007B00091F0F601868197812F96E2E10C94B807BB
:1007C000803739F08837A9F714FD146020E130E054
:1007D000D8CF1061F9CF04FD166020E132E0D1CF0F
:1007E00028E030E0CECFF2E06F0E711CF5016081A1
:1007F000718190E080E0D0CF02FD02C0B3947DCF44
:10080000B394B3947ACF802F867809F476CFF6CF5D
:10081000B60180E290E00E94D308B394B514C0F30F
:10082000E12C77CFE52CEB18B51408F472CFF8CF94
:10083000802F867809F47FCF8BE201FF80E207FDED
:100840008DE2B60190E075CFB60180E390E00E94A2
:10085000D308FA9470CF8FEF9FEFAECF24E0E12C56
:10086000251508F063CD84E053CD1F920F920FB68B
:100870000F9211242F938F939F93E09AE9981092EF
:1008800048011092430110923D0110923C011092D8
:100890003F0110923E0110923B0110923A0120C09C
:1008A00080913E0190913F01892B21F48091480174
:1008B0008731E9F180913E0190913F010197D1F19B
:1008C00080913E0190913F010197F1F14D9906C051
:1008D00080913C0190913D010197F1F14B9B78C0D3
:1008E0004C9981C04E990AC080913E0190913F0180
:1008F00021E0822790933F0180933E014D99E6CFFE
:1009000080913C0190913D01892B01F780913E013E
:1009100090913F01892B21F680914801873108F0A1
:10092000BFCF809148018F5F80934801CFCF109255
:100930004801CCCF809143018B3310F68091430165
:100940008F5F80934301C2CF809143018B3309F0C5
:10095000BDCF10924301BACF80913E0190913F01EB
:10096000892B51F480914201873130F4809142010A
:100970008F5F80934201B2CF80913E0190913F0101
:10098000892B21F4809142018731A9F080913E01A9
:1009900090913F01019791F080913E0190913F012C
:1009A000019709F09BCF809149018B3309F096CFD5
:1009B0001092490193CF1092420190CF809149014A
:1009C0008B3350F7809149018F5F8093490186CF27
:1009D00080913C0190913D0121E0822790933D015F
:1009E00080933C017DCF80913C0190913D01892B0A
:1009F00071F480914801811104C0809143018823E2
:100A000031F081E090E090933B0180933A01E99AC4
:100A10009F918F912F910F900FBE0F901F9018955F
:100A20001F920F920FB60F9211248F9310923B01D9
:100A300010923A0183E68093480117BC28982B98BE
:100A40008F910F900FBE0F901F9018958AB18374ED
:100A50008AB98BB18C6B8BB9569A5E98239A2B9876
:100A600010928000E1E8F0E080818960808383EC6F
:100A700099E09093890080938800B19AE9E6F0E0CC
:100A800080818C7F80838DB383608DBB81E884BD42
:100A90008AE085BD089580914401909145010196B9
:100AA00090934501809344018091440190914501C8
:100AB000883E934069F080914A018C3399F080918F
:100AC00049018C33B9F0809142018831D9F0089501
:100AD00080914A018F5F80934A01109245011092E4
:100AE0004401E9CF809149018F5F809349011092C1
:100AF0004A01E5CF809142018F5F809342011092BD
:100B00004901E1CF10924201E2CF809146019091DC
:100B100047010196909347018093460180914601D9
:100B200090914701883E934009F44DC08091410166
:100B3000811119C080914301882341F080914301C4
:100B40008150809343018BE3809341018091430165
:100B50008C3348F480914301882329F0809143012C
:100B600081508093430180914301811119C080918C
:100B70004801882341F080914801815080934801C9
:100B80008BE380934301809148018D3348F4809139
:100B90004801882329F080914801815080934801C1
:100BA0008091480181110EC08091430181110AC0DA
:100BB00080914101811106C080913A0190913B01E1
:100BC000019721F10895809141018C3370F4809157
:100BD0004101882351F0809141018150809341016E
:100BE0001092470110924601A1CF809141018111DD
:100BF000F7CF80914301882399F38091430181507D
:100C0000809343018BE380934101EACF8EE487BD5B
:100C1000D9CF0F931F93CF93DF93CDB7DEB76497F0
:100C20000FB6F894DEBF0FBECDBF8EE091E0898392
:100C300020914A0190914901809142011F922F9386
:100C40001F929F931F928F9380E191E09F938F93C8
:100C50008E010F5F1F4F1F930F930E9433091F9345
:100C60000F938FE191E09F938F9380E091E09F93AA
:100C70008F930E94C1080FB6F894DEBF0FBECDBFA0
:100C800064960FB6F894DEBF0FBECDBFDF91CF9153
:100C90001F910F9108950F931F93CF93DF93CDB7BB
:100CA000DEB764970FB6F894DEBF0FBECDBF8EE0FF
:100CB00091E0898320914101909143018091480105
:100CC0001F922F931F929F931F928F9380E191E029
:100CD0009F938F938E010F5F1F4F1F930F930E945F
:100CE00033091F930F938AE291E09F938F9380E0E3
:100CF00091E09F938F930E94C1080FB6F894DEBFD6
:100D00000FBECDBF64960FB6F894DEBF0FBECDBF49
:100D1000DF91CF911F910F9108950E9426050E94A7
:100D20005D07789481E0809343018EE180934101D7
:100D3000CBE316C01092390120C00E944B0680916F
:100D4000410180933801F8940E944B050E9485056B
:100D5000789480913A0190913B01019759F12B9839
:100D6000B19BFECFB19A9091390180914A019817B9
:100D700081F080914A018C33E9F220E031E042E0D9
:100D800050E061E070E085E391E00E9403090E9479
:100D9000090680914A018093390190913801809130
:100DA0004101981761F2809141018B3331F6C09374
:100DB0003801C3CF2B9AD4CF5998611108C05898E5
:100DC00098B1907F892B88B9449A44980895589A8D
:100DD000F7CF599A97B1907F97B981110BC0589866
:100DE000449A000086B1449897B19F6097B959988A
:100DF0008F700895589AF4CFCF93DF93C82FD62FD2
:100E000082958F700E94DC066D2F8C2F8F700E9450
:100E1000DC06DF91CF910895CF93DF93C82F0E9416
:100E2000E906D82FD295D07F8C2F0E94E9068D2B12
:100E3000DF91CF91089580E00E940C078823DCF3B6
:100E40000895509A519A3C9A87B18F6087B985EA84
:100E50009EE00197F1F700C0000060E083E00E948F
:100E6000DC0680E094E00197F1F700C0000060E04C
:100E700083E00E94DC0691E29A95F1F7000060E0C1
:100E800083E00E94DC068CE08A95F1F7000060E0C8
:100E900082E00E94DC0680E00E941B0760E088E29E
:100EA0000E94FC0680E00E941B0760E088E00E9430
:100EB000FC0680E00E941B0708950E94210760E065
:100EC00081E00E94FC0681E00E941B0760E086E052
:100ED0000E94FC0680E00E941B0760E08EE00E94FA
:100EE000FC0680E00E941B070895CF93C82F8091D5
:100EF0004001811111C0CB3139F481E08093400170
:100F000090E080E0CF91089580E00E941B0761E0AF
:100F10008C2F0E94FC06F4CF80E00E941B0760E04B
:100F20008C2F0E94FC06C43018F010924001E8CFCC
:100F300081E00E941B07F9CF2F923F924F925F9260
:100F40006F927F928F929F92AF92BF92CF92DF92D9
:100F5000EF92FF920F931F93CF93DF93CDB7DEB73E
:100F6000CA1BDB0B0FB6F894DEBF0FBECDBF0994D2
:100F70002A88398848885F846E847D848C849B8429
:100F8000AA84B984C884DF80EE80FD800C811B8137
:100F9000AA81B981CE0FD11D0FB6F894DEBF0FBE66
:100FA000CDBFED010895283008F027E03327DA019E
:100FB000990F311D87FD916000966105710539F427
:100FC00032602E5F3D9330E32A95E1F708959F3F0D
:100FD00030F080387105610509F03C5F3C5F3D935E
:100FE000913008F08068911DDF93CF931F930F938A
:100FF000FF92EF92192F987F9695E92F96959695E7
:10100000E90FFF27E653FF4F99273327EE24FF24EC
:10101000A701E70105900894079428F4360FE71E0E
:10102000F81E491F511D660F771F881F991F0694D0
:10103000A1F70590079428F4E70EF81E491F561FE4
:10104000C11D770F881F991F661F0694A1F7059091
:10105000079428F4F80E491F561FC71FD11D880F8B
:10106000991F661F771F0694A1F70590079420F437
:10107000490F561FC71FD81F990F661F771F881F5C
:101080000694A9F784911095177041F0D695C795ED
:1010900057954795F794E7941A95C1F7E0E7F0E084
:1010A00068941590159135916591959105907FE221
:1010B0007395E118F10A430B560BC90BD009C0F721
:1010C000E10CF11E431F561FC91FD01D7EF4703363
:1010D00011F48A95E6CFE894015030F0080F0AF435
:1010E0000027021708F4202F2395022F7A3328F0C7
:1010F00079E37D932A95E9F710C07D932A9589F6C7
:10110000069497956795379517951794E118F10A06
:10111000430B560BC90BD00998F023957E9173951C
:101120007A3308F070E37C932013B8F77E917061F6
:101130007D9330F0839571E37D9370E32A95E1F719
:101140001124EF90FF900F911F91CF91DF9199277C
:1011500087FD90950895FC01059061507040011045
:10116000D8F7809590958E0F9F1F0895FC016150D0
:10117000704001900110D8F7809590958E0F9F1FB9
:101180000895B0E0A0E0E7ECF8E00C94AC07AE0105
:10119000475F5F4F6F8178858D819E810E94D4006B
:1011A000E2E00C94C8070F931F93CF93DF93182F9F
:1011B000092FEB018B8181FD09C01FEF0FEF812FFC
:1011C000902FDF91CF911F910F91089582FF14C04E
:1011D0002E813F818C819D81281739073CF4E8815D
:1011E000F981CF0101969983888310838E819F8135
:1011F00001969F838E83E3CFE885F985812F09953A
:10120000892BA1F3DACFB0E0A0E0E9E0F9E00C949B
:10121000A2075B014A017901D90113962C91D0E014
:10122000C0E021FF1AC0C815D905B9F08C016C01C6
:10123000CA0CDB1C0CC00F5F1F4FD7011896ED9135
:10124000FC91B701DC018C910995892B31F4C8011F
:101250000C151D0581F72196E6CFCE01CDB7DEB77F
:10126000ECE00C94BE07AEE0B0E0E9E3F9E00C94EA
:10127000AA070D891E8986E08C831A8309838FEF64
:101280009FE79E838D83AE01475E5F4F6F89788DA8
:10129000CE0101960E94D4002F813885020F131FC2
:1012A000F80110822E96E4E00C94C607FA01AA27F2
:1012B000283051F1203181F1E8946F936E7F6E5F99
:1012C0007F4F8F4F9F4FAF4FB1E03ED0B4E03CD047
:1012D000670F781F891F9A1FA11D680F791F8A1F2A
:1012E000911DA11D6A0F711D811D911DA11D20D091
:1012F00009F468943F912AE0269F11243019305D4B
:101300003193DEF6CF010895462F4770405D41933B
:10131000B3E00FD0C9F7F6CF462F4F70405D4A3388
:1013200018F0495D31FD4052419302D0A9F7EACF50
:10133000B4E0A6959795879577956795BA95C9F77F
:1013400000976105710508959B01AC010A2E069472
:101350005795479537952795BA95C9F7620F731F2B
:0C136000841F951FA01D0895F894FFCF76
:10136C0000000002000000007507000000000000F3
:10137C00253032753A253032753A253032750043B6
:10138C006C6F636B202020257300416C61726D20A3
:08139C0020202573001B010055
:00000001FF
