:100000000C9434000C9453000C942E010C94510069
:100010000C9451000C9451000C9451000C9451001C
:100020000C9451000C9451000C9451000C9451000C
:100030000C9451000C9451000C9451000C945100FC
:100040000C9451000C9451000C9451000C945100EC
:100050000C9451000C9451000C9451000C945100DC
:100060000C9451000C94510011241FBECFEFD8E026
:10007000DEBFCDBF11E0A0E0B1E0E2E7FCE002C0EE
:1000800005900D92A034B107D9F721E0A0E4B1E0CA
:1000900001C01D92AD34B207E1F70E9467010C94D4
:1000A00037060C9400001F920F920FB60F92112486
:1000B0002F938F939F93E09AE99810924A011092A0
:1000C0004901109243011092420110924501109291
:1000D0004401109241011092400120C080914401DE
:1000E00090914501892B21F480914A018731E9F1F2
:1000F00080914401909145010197D1F18091440193
:10010000909145010197F1F14D9906C0809142010E
:10011000909143010197F1F14B9B78C04C9981C0BC
:100120004E990AC0809144019091450121E08227B7
:1001300090934501809344014D99E6CF809142010F
:1001400090914301892B01F78091440190914501E1
:10015000892B21F680914A01873108F0BFCF809129
:100160004A018F5F80934A01CFCF10924A01CCCFD2
:10017000809149018B3310F6809149018F5F809304
:100180004901C2CF809149018B3309F0BDCF109254
:100190004901BACF8091440190914501892B51F4D6
:1001A00080914801873130F4809148018F5F8093BE
:1001B0004801B2CF8091440190914501892B21F4EF
:1001C000809148018731A9F08091440190914501C7
:1001D000019791F08091440190914501019709F0B8
:1001E0009BCF80914B018B3309F096CF10924B013E
:1001F00093CF1092480190CF80914B018B3350F7F1
:1002000080914B018F5F80934B0186CF809142019B
:100210009091430121E08227909343018093420112
:100220007DCF8091420190914301892B71F480919F
:100230004A01811104C080914901882331F081E095
:1002400090E09093410180934001E99A9F918F91B2
:100250002F910F900FBE0F901F9018951F920F9225
:100260000FB60F9211248F9310924101109240010A
:1002700083E680934A0117BC28982B988F910F90A2
:100280000FBE0F901F9018958AB183748AB98BB1F5
:100290008C6B8BB9239A2B9810928000E1E8F0E0E8
:1002A00080818960808383EC99E0909389008093BA
:1002B0008800B19AE9E6F0E080818C7F80838DB37D
:1002C00083608DBB81E884BD8AE085BD0895CF93AE
:1002D000DF93CDB7DEB768970FB6F894DEBF0FBED9
:1002E000CDBF0E9444017894912C812CD12CC12C3B
:1002F0009E01235F3F4F3E8B2D8BCE010396988F3F
:100300008F8B0F2EF9E26F2EF1E07F2EF02D7E0104
:100310009BE0E90EF11C0F2EF8E14F2EF1E05F2E6D
:10032000F02D00E011E00F2EF4E22F2EF1E03F2E31
:10033000F02DFE0131965F01E3C080914C018F5F8B
:1003400080934C01D12CC12CE8C080914B018F5F70
:1003500080934B0110924C01E5C0809148018F5F62
:100360008093480110924B01E2C010924801E4C012
:100370003FEF831A930AE7C08091400190914101B9
:10038000019709F0E6C0809147018C3360F48091B9
:100390004701882341F080914701815080934701B4
:1003A000912C812CD6C080914701912C812C8111F8
:1003B000D0C080914901912C812C882309F4C9C0B7
:1003C000809149018150809349019BE390934701BB
:1003D000912C812CBEC080914901882341F08091ED
:1003E0004901815080934901EBE3E09347018091FB
:1003F00049018C3308F0B8C080914901882309F481
:10040000B3C080914901815080934901ADC0809172
:100410004A01882341F080914A01815080934A012A
:10042000FBE3F093490180914A018D3308F0A7C0A6
:1004300080914A01882309F4A2C080914A01815029
:1004400080934A019CC08091400190914101892B89
:1004500019F433E630934A017894EEE0F1E020811C
:1004600031813C872B8788E0ED89FE89982F119296
:100470009A95E9F73A832983EF89F88D11928A9545
:10048000E9F790914B01809148011F929F931F9231
:100490008F937F926F92FF92EF920E945F03FF9281
:1004A000EF925F924F921F930F930E944D03209102
:1004B00047019091490180914A011F922F931F9209
:1004C0009F931F928F933F922F92BF92AF920E9461
:1004D0005F03BF92AF9223E331E03F932F931F93CB
:1004E0000F930E944D0380914001909141010FB6FE
:1004F000F894DEBF0FBECDBF019709F456C02B980C
:10050000B19BFECFB19AF894FFEFCF1ADF0A28EE25
:10051000C21623E0D20609F410CF80914C018C332F
:1005200009F413CF80914B018C3309F416CF8091DD
:100530004801883109F419CF80914001909141011F
:10054000019709F415CF88EE881683E0980609F420
:1005500013CF80914701811107C080914001909194
:100560004101019709F437CF80914901811107C0FA
:100570008091400190914101019709F448CF809109
:100580004A01811160CF8091490181115CCF809136
:100590004701811158CF809140019091410101970D
:1005A00009F051CF2EE427BD4ECF2B9AA9CF5998F1
:1005B00061110BC0589898B19778880F880F880FF1
:1005C000892B88B9429A42980895589AF4CF599A3B
:1005D00097B1977897B9811112C05898429A000044
:1005E00086B1429897B1986797B9599890E09595D8
:1005F000879595958795959587958F700895589AC5
:10060000EDCFCF93DF93C82FD62F82958F700E94A6
:10061000D7026D2F8C2F8F700E94D702DF91CF9160
:100620000895CF93DF93C82F0E94E702D82FD29569
:10063000D07F8C2F0E94E7028D2BDF91CF91089500
:1006400080E00E9411038823DCF30895CF93C82F24
:1006500080914601811111C0CB3139F481E0809342
:10066000460190E080E0CF91089580E00E94200351
:1006700061E08C2F0E940103F4CF80E00E942003F0
:1006800060E08C2F0E940103C43018F010924601E4
:10069000E8CF81E00E942003F9CFB0E0A0E0E3E5DD
:1006A000F3E00C941006AE01475F5F4F6F817885D1
:1006B0008D819E810E948203E2E00C942C06AEE0C4
:1006C000B0E0E5E6F3E00C940E060D891E8986E0A5
:1006D0008C831A8309838FEF9FE79E838D83AE01FE
:1006E000475E5F4F6F89788DCE0101960E9482032D
:1006F0002F813885020F131FF80110822E96E4E037
:100700000C942A06ABE0B0E0E8E8F3E00C940006B5
:100710007C013B018A01FC0117821682838181FFE3
:10072000C8C1CE0101965C01F7019381F30193FDED
:10073000859193FF81913F01882309F453C185324C
:1007400039F493FD859193FF81913F01853229F41E
:10075000B70190E00E947205E7CF912C212C312C3B
:10076000FFE1F31538F08B3211F190F4803209F18A
:10077000833229F137FC3CC020ED280F2A3050F598
:1007800036FE20C08AE0989E200D1124922E06C0CD
:100790008D3291F0803371F7689430F8F30193FD56
:1007A000859193FF81913F018111DACF21C0689437
:1007B00031F8689432F8F2CF689433F8EFCF689448
:1007C00034F8ECCFEAE02E9E200D1124222E6894FE
:1007D00035F8E4CF8E3229F436FC04C1689436F83B
:1007E000DDCF8C3619F4689437F8D8CF8836B1F25B
:1007F000982F9F7D95549330E0F08336A1F1833795
:10080000C1F1833509F063C02801F2E04F0E511C9D
:10081000F801C080D180692D70E036FC02C06FEF16
:100820007FEFC6010E945C054C01689437F8820195
:100830000AC00C5F1F4FFFE3F98388248394912C37
:100840006501E89437F833FE2DC0522C81149104D1
:1008500071F5552009F468CFB70180E290E00E945D
:1008600072055A94F6CFF801808189830E5F1F4F7D
:10087000E4CF2801F2E04F0E511CF801C080D18076
:10088000692D70E036FC02C06FEF7FEFC6010E9459
:1008900067054C018201D5CFB70180E290E00E944C
:1008A00072052A942814190409F0B0F7CECFF60186
:1008B00037FC859137FE81916F01B70190E00E946E
:1008C000720551105A94F1E08F1A9108BFCF843607
:1008D00019F0893609F077C0F80137FE6BC06081E6
:1008E0007181828193810C5F1F4FF32DFF763F2E24
:1008F00097FF09C090958095709561957F4F8F4FB8
:100900009F4F689437F82AE030E0A5010E94A205C5
:10091000C82ECA188C2C432C36FE0CC0E89440F824
:10092000C91440F434FE05C032FC03C0F32DFE7E32
:100930004F2E892C44FE95C0FE01EC0DF11D8081E7
:10094000803309F087C0242D297E422E842D8870A3
:10095000582E43FC95C040FE8FC09C2C821418F486
:100960002C0C922C981844FE91C0B70180E390E0C3
:100970000E94720542FE09C088E790E041FE02C075
:1009800088E590E0B7010E947205C91408F48AC096
:10099000CA94D12C9FEFC91AD90ACA0CDB1CF601E4
:1009A00082916F01B70190E00E947205AC14BD0402
:1009B000B1F74FCF60817181072E000C880B990B26
:1009C0000E5F1F4F92CFD32CE894D4F82AE030E08A
:1009D000853739F1232D297FD22E8F3601F148F446
:1009E0008835A9F0F701868197812B96E2E10C9476
:1009F0001C06803749F08837A9F7D4FE02C06894F6
:100A0000D2F820E130E00DC06894D4F8F6CF34FE7F
:100A100003C0822F8660D82E20E132E002C028E099
:100A200030E0F801D7FE0FC060817181828193812F
:100A30000C5F1F4FA5010E94A205C82ECA183D2CAD
:100A4000E89437F867CF6081718190E080E00E5FB5
:100A50001F4FF0CF42FC02C0839478CF83948394DD
:100A600075CF842D867809F471CFF6CFB70180E277
:100A700090E00E94720583948214C0F3512C73CFCE
:100A8000522C5818821408F46ECFF8CF842D867833
:100A900009F47BCF8BE241FE80E247FC8DE2B70197
:100AA00090E071CFB70180E390E00E9472059A94C4
:100AB0006CCF8FEF9FEF99CFFC0105906150704094
:100AC0000110D8F7809590958E0F9F1F0895FC0117
:100AD0006150704001900110D8F7809590958E0F6D
:100AE0009F1F08950F931F93CF93DF93182F092F04
:100AF000EB018B8181FD09C01FEF0FEF812F902F3C
:100B0000DF91CF911F910F91089582FF14C02E8124
:100B10003F818C819D81281739073CF4E881F98158
:100B2000CF0101969983888310838E819F810196DE
:100B30009F838E83E3CFE885F985812F0995892BE3
:100B4000A1F3DACFFA01AA27283051F1203181F13F
:100B5000E8946F936E7F6E5F7F4F8F4F9F4FAF4FC5
:100B6000B1E03ED0B4E03CD0670F781F891F9A1FD8
:100B7000A11D680F791F8A1F911DA11D6A0F711D8C
:100B8000811D911DA11D20D009F468943F912AE098
:100B9000269F11243019305D3193DEF6CF01089580
:100BA000462F4770405D4193B3E00FD0C9F7F6CFB1
:100BB000462F4F70405D4A3318F0495D31FD405279
:100BC000419302D0A9F7EACFB4E0A695979587950F
:100BD00077956795BA95C9F70097610571050895EE
:100BE0009B01AC010A2E069457954795379527959A
:100BF000BA95C9F7620F731F841F951FA01D089532
:100C00002F923F924F925F926F927F928F929F921C
:100C1000AF92BF92CF92DF92EF92FF920F931F930A
:100C2000CF93DF93CDB7DEB7CA1BDB0B0FB6F894BB
:100C3000DEBF0FBECDBF09942A88398848885F84FB
:100C40006E847D848C849B84AA84B984C884DF806C
:100C5000EE80FD800C811B81AA81B981CE0FD11D50
:100C60000FB6F894DEBF0FBECDBFED010895F89426
:020C7000FFCFB4
:100C72000000000200000000260300000000000047
:100C820000000000000000001B1C6C6F636B202042
:100C920020257300253032693A253032693A2530F1
:100CA2003269001B0A6C61726D20202025730000DE
:00000001FF
