:100000000C94B5000C9435040C945B040C94D20051
:100010000C94D2000C94D2000C94D2000C94D20018
:100020000C94D2000C94D2000C94D2000C94D20008
:100030000C94D2000C94D2000C94D2000C94D200F8
:100040000C94D2000C94D2000C94D2000C94D200E8
:100050000C94D2000C94D2000C94D2000C94D200D8
:100060000C94D2000C94D2006E616E00696E660032
:1000700000407A10F35A00A0724E18090010A5D45F
:10008000E80000E87648170000E40B54020000CABC
:100090009A3B000000E1F505000080969800000002
:1000A00040420F000000A086010000001027000061
:1000B0000000E803000000006400000000000A00E7
:1000C000000000000100000000002C76D888DC67EA
:1000D0004F0823DFC1DFAE59E1B1B796E5E3E45342
:1000E000C63AE651997696E8E6C28426EB898C9B5F
:1000F00062ED407C6FFCEFBC9C9F40F2BAA56FA5FF
:10010000F490055A2AF75C936B6CF9676DC11BFC80
:10011000E0E40D47FEF520E6B500D0ED902E03009B
:10012000943577050080841E080000204E0A0000E8
:1001300000C80C333333330F986E12831141EF8DA7
:100140002114893BE65516CFFEE6DB18D1844B38E7
:100150001BF77C1D901DA4BBE424203284725E2218
:100160008100C9F124ECA1E53D2711241FBECFEF8A
:10017000D8E0DEBFCDBF11E0A0E0B1E0EAEAF5E1F2
:1001800002C005900D92A83AB107D9F721E0A8EA7C
:10019000B1E001C01D92AA3BB207E1F70E94CE0771
:1001A0000C94D30A0C940000AFE0B0E0EAEDF0E06C
:1001B0000C94BB086C011B015A01FC0117821682CA
:1001C000838181FF48C39E012F5F3F4F4901F601A4
:1001D0009381F10193FD859193FF81911F01882304
:1001E00009F4E7C2853239F493FD859193FF81913B
:1001F0001F01853239F4B60190E00E94F209350101
:100200005301E5CFF12C512C00E0003238F48B3251
:1002100009F190F48032F9F0833209F107FD34C01E
:1002200020ED280F2A3020F506FF1BC0FAE0FF9EC4
:10023000200D1124F22E05C08D3279F0803371F734
:100240000160F10193FD859193FF81911F0181115F
:10025000DCCF1AC002600460F4CF0860F2CF006106
:10026000F0CF3AE0539E200D1124522E0062E9CFC8
:100270008E3221F406FD9DC20064E3CF8C3611F46A
:100280000068DFCF8836E9F29BEB980F933008F0D7
:100290005FC00061805E06FD02C046E0F42E102FB4
:1002A0001F73853609F05BC0106417FF61C08F2D86
:1002B0009BE39F1508F48BE344244394480E27E006
:1002C0003501F4E06F0E711CF5016081718182814E
:1002D0009381042DA4010E94F2085C01F981FC873E
:1002E000F0FF03C00DE2F3FF07C00BE211FD04C0F5
:1002F000012F047012FD00E22C852C70E22E09F40F
:1003000057C00111ABC2F3E0E12CF515A0F483E076
:10031000E52CE81A13FD08C0B60180E290E00E94C7
:10032000F209EA94E110F8CF002329F0B601802FFA
:1003300090E00E94F2093C8528E6A22E20E0B22E31
:1003400033FD04C09CE6A92E90E0B92E107122C0A6
:100350009BE9980F933008F033C10F7E9CCF86360F
:1003600011F41068A2CFFF2009F49FCFFA949DCF1B
:10037000E7E02F2DEF1518F427E037E0F32E412C9E
:100380009FCF11118052B60190E00E94F2098FEFC9
:10039000A81AB80AF50184918111F3CFEE2009F46F
:1003A0002FCFB60180E290E00E94F209EA94F6CFE6
:1003B00017FF6FC04A0CFC85F4FF04C08A818133AB
:1003C00009F44A9414140CF086C028E0241510F4A3
:1003D00088E0482E85E090E017FF06C0C501B7FE13
:1003E00002C090E080E0019601110196FF2031F0FB
:1003F0002F2D30E02F5F3F4F820F931F58161906A5
:1004000019F014F0E52CE81A812F897011F4E1102D
:1004100067C0002329F0B601802F90E00E94F20906
:1004200013FD02C0E11063C017FF7CC08501B7FE59
:1004300002C010E000E0C501841991092C016F2D64
:1004400070E0EE27FF27E61BF70BFF87EE870F3FD5
:10045000100729F4B6018EE290E00E94F209A0167E
:10046000B1060CF44BC0401651060CF047C0F50124
:10047000E01BF10BE80DF91D8181015011092E855A
:100480003F8502171307E4F1B60190E00E94F209DC
:10049000DECF16FD9FCFEF2DF0E0EA15FB0534F01F
:1004A0003CEFA3163FEFB3060CF010683296E80D50
:1004B000F91D01C0FA94FF2019F082918033D1F325
:1004C00017FF88CF442443944F0CFA141B0431F0D7
:1004D0002CF0FA187FCF442443947CCFF12C7ACFB0
:1004E000B60180E290E00E94F209EA9490CFB60152
:1004F00080E390E00E94F209EA9494CF80E3BDCFBC
:10050000A016B10641F49A81963350F4953319F44C
:100510003C8534FF05C0B60190E00E94F2093ECF51
:1005200081E3F9CF8A81813319F09C859F7E9C8776
:10053000B60190E00E94F209FF20A9F0B6018EE218
:1005400090E00E94F209F394F394E2E001E00E0FD0
:10055000E80DF92DF11D8081B60190E00E94F209AD
:10056000E02F0F11F3CF85E690E014FF02C085E481
:1005700090E0B6010E94F209B7FC06C0A114B104D4
:10058000C1F4EC85E4FF15C0B194A194B1088DE2EB
:10059000B60190E00E94F20980E32AE0A216B104BD
:1005A00054F4B60190E00E94F209B601C501C0966C
:1005B000B4CF8BE2EDCF8F5FFAE0AF1AB108EDCF89
:1005C0008336C9F0833771F1833509F05BC035019B
:1005D000F2E06F0E711CF501A080B1806F2D70E00C
:1005E00006FD02C06FEF7FEFC5010E94CA099D871B
:1005F0008C8700680DC0350132E0630E711CF50177
:100600008081898321E030E03D872C8754010F777A
:1006100003FD06C02C853D855216130609F0A8F48B
:10062000E52C2BC0350132E0630E711CF501A08072
:10063000B1806F2D70E006FD02C06FEF7FEFC50146
:100640000E94D5099D878C87E2CFB60180E290E0B9
:100650000E94F2095A94DECFF50107FD859107FF4C
:1006600081915F01B60190E00E94F209E110EA94E5
:100670008C859D8501979D878C87EC85FD85EF2B6B
:1006800059F78CCE843619F0893609F074C03501DB
:1006900007FF66C0F4E06F0E711CF5016081718187
:1006A00082819381102F1F7697FF08C090958095C7
:1006B000709561957F4F8F4F9F4F10682AE030E013
:1006C000A4010E94750AA82EA818BA2C012F16FFA3
:1006D0000AC00E7FAF1438F414FF04C012FD02C02C
:1006E000012F0E7EBF2C04FF8EC0FE01EA0DF11D0E
:1006F0008081803309F080C0097EF02FF870EF2EE2
:1007000003FD90C000FF8AC0FA2CB51410F4F50C5C
:10071000FB1804FF8DC0B60180E390E00E94F2094F
:1007200002FF09C088E790E001FF02C088E590E081
:10073000B6010E94F209AF1408F486C0AA940A2DEB
:1007400010E00F5F1F4F080D191DF80182918F01F6
:10075000B60190E00E94F20980169106B1F71ECE14
:10076000F2E06F0E711CF50160817181072E000CA3
:10077000880B990B97CF102F8537A9F41F7E2AE09D
:1007800030E0350117FF2FC0F4E06F0E711CF5014A
:100790006081718182819381A4010E94750AA82ED3
:1007A000A8181F7792CF197F8F36D1F048F488357B
:1007B00091F0F601868197812F96E2E10C94D7089B
:1007C000803739F08837A9F714FD146020E130E054
:1007D000D8CF1061F9CF04FD166020E132E0D1CF0F
:1007E00028E030E0CECFF2E06F0E711CF5016081A1
:1007F000718190E080E0D0CF02FD02C0B3947DCF44
:10080000B394B3947ACF802F867809F476CFF6CF5D
:10081000B60180E290E00E94F209B394B514C0F3EF
:10082000E12C77CFE52CEB18B51408F472CFF8CF94
:10083000802F867809F47FCF8BE201FF80E207FDED
:100840008DE2B60190E075CFB60180E390E00E94A2
:10085000F209FA9470CF8FEF9FEFAECF24E0E12C36
:10086000251508F063CD84E053CD1F920F920FB68B
:100870000F9211242F938F939F9383ED90E3019711
:10088000F1F700C000008091A9019091AA0121E038
:1008900082279093AA018093A90183ED90E30197A9
:1008A000F1F700C000009F918F912F910F900FBE24
:1008B0000F901F9018951F920F920FB60F92112450
:1008C0008F931092AC011092AB0183E68093B80134
:1008D0001092B10117BC28988F910F900FBE0F9006
:1008E0001F9018958AB183748AB98BB18C6B8BB9C0
:1008F000569A5E98209A289810928000E1E8F0E0DD
:1009000080818960808383EC99E090938900809353
:100910008800B19AE9E6F0E080818C7F80838DB316
:1009200083608DBB81E884BD82E085BD1092B000FC
:1009300008958091B6019091B70101969093B70107
:100940008093B6018091B6019091B701883E9340A3
:10095000B9F08091B6019091B701883E934001F1C2
:100960008091AE018C3309F474C08091B9018C334D
:1009700009F477C08091B001883109F47AC00895F4
:100980008091AB019091AC01892B19F78091AE0158
:100990008F5F8093AE011092B7011092B601D9CF4C
:1009A0008091AB019091AC010197D1F68091AE019D
:1009B0008F5F8093AE018091AD018C3348F48091BC
:1009C000AD01882329F08091AD0181508093AD0164
:1009D0008091AD01811114C08091B1018B3381F000
:1009E0008091B1018B3360F48091B101882341F093
:1009F0008091B10181508093B1018BE38093AD016F
:100A00008091AD01811104C08091B1018B33C9F097
:100A10008091B101811110C08091B801883160F4DA
:100A20008091B801882341F08091B8018150809372
:100A3000B8018BE38093B1011092B7011092B60117
:100A40008FCF8091B101882319F38BE38093AD019F
:100A5000DFCF8091B9018F5F8093B9011092AE0111
:100A600084CF8091B0018F5F8093B0011092B90163
:100A700081CF1092B00183CF0F931F93CF93DF9359
:100A8000CDB7DEB764970FB6F894DEBF0FBECDBF0B
:100A90002091AE019091B9018091B0011F922F93E6
:100AA0001F929F931F928F938EE091E09F938F935D
:100AB0008E010F5F1F4F1F930F930E94520A1F93C7
:100AC0000F938DE191E09F938F9380E091E09F934E
:100AD0008F930E94E0090FB6F894DEBF0FBECDBF22
:100AE00064960FB6F894DEBF0FBECDBFDF91CF91F5
:100AF0001F910F9108950F931F93CF93DF93CDB75D
:100B0000DEB764970FB6F894DEBF0FBECDBF20915D
:100B1000AD019091B1018091B8011F922F931F9266
:100B20009F931F928F938EE091E09F938F938E01FE
:100B30000F5F1F4F1F930F930E94520A1F930F9333
:100B400088E291E09F938F9380E091E09F938F9351
:100B50000E94E0090FB6F894DEBF0FBECDBF6496C9
:100B60000FB6F894DEBF0FBECDBFDF91CF911F91BE
:100B70000F910895B19BFECFB19A9091A8018091F9
:100B8000AE01981709F445C08091AE018C3309F489
:100B900059C020E031E042E050E061E070E083E3E2
:100BA00091E00E94220A0E943C0520E031E042E0F0
:100BB00050E061E070E086E391E00E94220A0E942A
:100BC0007B058091B80181110EC08091B101811126
:100BD0000AC08091AD01811106C08091AB01909156
:100BE000AC010197A1F18091B80181110EC08091F3
:100BF000B10181110AC08091AD01811106C08091BF
:100C0000AB019091AC01892B69F18091B8018336D9
:100C1000A1F1F8948091AE018093A8010E949904FB
:100C20008091AB019091AC01892B19F483E68093FC
:100C3000B80178948091AB019091AC01019771F16A
:100C400028980895F8941092A8017894A2CF20E0F3
:100C500031E042E150E061E070E089E391E00E9420
:100C6000220AD7CF20E031E042E150E061E070E0BD
:100C70008CE491E00E94220ACCCF8091AB0190914C
:100C8000AC01892B31F620E031E042E150E061E037
:100C900070E08CE491E00E94220ABBCF289A08956C
:100CA0008091B4019091B501019709F44BC08091F6
:100CB000B4019091B501892B11F41092AD014F99B7
:100CC00010C083ED90E30197F1F700C00000809120
:100CD000B2019091B30121E082279093B3018093F8
:100CE000B2014C9910C083ED90E30197F1F700C079
:100CF00000008091B4019091B50121E0822790938A
:100D0000B5018093B4014D9948C08091B401909190
:100D1000B501892B09F041C083ED90E30197F1F70C
:100D200000C000008091B2019091B301892B69F459
:100D30008091B801873148F48091B8018F5F80932A
:100D4000B8012BC01092AE01B2CF8091B201909148
:100D5000B301892B21F48091B801873169F080912A
:100D6000B2019091B301892B51F48091B80189317E
:100D700030F01092B80111C01092B8010EC08091ED
:100D8000B2019091B301019709F451C08091B20171
:100D90009091B301019709F455C04D9907C0809116
:100DA000B4019091B501019709F454C08091B80144
:100DB000833671F08091B801811104C08091B10136
:100DC000882331F081E090E09093AC018093AB01F7
:100DD0008FE493EC0197F1F700C000008091B4011B
:100DE0009091B501892B39F48091B2019091B301B2
:100DF000892B09F471C08091B4019091B501892BC0
:100E000039F48091B2019091B301019709F479C04E
:100E10008091B4019091B501019709F487C0809148
:100E2000B4019091B501019709F49CC00895809197
:100E3000B1018B3308F0AACF8091B1018F5F80930D
:100E4000B101ABCF8091B1018B3309F0A6CF1092E5
:100E5000B101A3CF83ED90E30197F1F700C000004B
:100E60008091B2019091B301892B51F48091B0012E
:100E7000873130F48091B0018F5F8093B00196CFBD
:100E80008091B2019091B301892B21F48091B0013E
:100E90008731A9F08091B2019091B301019791F04F
:100EA0008091B2019091B301019709F07FCF8091B9
:100EB000B9018B3309F07ACF1092B90177CF109234
:100EC000B00174CF8091B9018B3350F78091B90193
:100ED0008F5F8093B9016ACF8091B8011F928F9381
:100EE0008FE591E09F938F9380E091E09F938F93A4
:100EF0000E94E0090F900F900F900F900F900F90AD
:100F00007ACF8091B1011F928F9381E791E09F93F7
:100F10008F9380E091E09F938F930E94E0090F9060
:100F20000F900F900F900F900F9072CF8091B201A1
:100F30009091B301892B09F072CF8091B0011F927B
:100F40008F9384E891E09F938F9380E091E09F934B
:100F50008F930E94E0090F900F900F900F900F90C9
:100F60000F905DCF8091B2019091B301019709F08C
:100F70005DCF8091B9011F928F9384E991E09F9397
:100F80008F9380E091E09F938F930E94E0090F90F0
:100F90000F900F900F900F900F9048CF0E94720407
:100FA00078940E947C0820E031E042E050E061E06B
:100FB00070E085EA91E00E94220AC7E202C00E9426
:100FC00050068091A9019091AA01892BC1F70E9436
:100FD000BA058091B8018111F4CF8091B1018111DE
:100FE000F0CF8091AD018111ECCF8091AB01909158
:100FF000AC01019731F7C7BDE4CF5998611108C022
:10100000589898B1907F892B88B9449A449808954C
:10101000589AF7CF599A97B1907F97B981110BC021
:101020005898449A000086B1449897B19F6097B948
:1010300059988F700895589AF4CFCF93DF93C82FA3
:10104000D62F82958F700E94FD076D2F8C2F8F7089
:101050000E94FD07DF91CF910895CF93DF93C82FB2
:101060000E940A08D82FD295D07F8C2F0E940A08A0
:101070008D2BDF91CF91089580E00E942D08882369
:10108000DCF30895509A519A3C9A87B18F6087B9E2
:101090008EE994E20197F1F700C0000060E083E080
:1010A0000E94FD0782E09AE00197F1F7000060E0FE
:1010B00083E00E94FD0793E59A95F1F7000060E058
:1010C00083E00E94FD078FE18A95F1F760E082E0FE
:1010D0000E94FD0780E00E943C0860E088E20E94D8
:1010E0001D0880E00E943C0860E088E00E941D0826
:1010F00080E00E943C0808950E94420860E081E080
:101100000E941D0881E00E943C0860E086E00E9489
:101110001D0880E00E943C0860E08EE00E941D08EF
:1011200080E00E943C080895CF93C82F8091AF01C2
:10113000811111C0CB3139F481E08093AF0190E08F
:1011400080E0CF91089580E00E943C0861E08C2F00
:101150000E941D08F4CF80E00E943C0860E08C2FC4
:101160000E941D08C43018F01092AF01E8CF81E052
:101170000E943C08F9CF2F923F924F925F926F925C
:101180007F928F929F92AF92BF92CF92DF92EF9217
:10119000FF920F931F93CF93DF93CDB7DEB7CA1B98
:1011A000DB0B0FB6F894DEBF0FBECDBF09942A88C3
:1011B000398848885F846E847D848C849B84AA846B
:1011C000B984C884DF80EE80FD800C811B81AA81F8
:1011D000B981CE0FD11D0FB6F894DEBF0FBECDBFC3
:1011E000ED010895283008F027E03327DA01990F40
:1011F000311D87FD916000966105710539F43260FB
:101200002E5F3D9330E32A95E1F708959F3F30F03C
:1012100080387105610509F03C5F3C5F3D9391307A
:1012200008F08068911DDF93CF931F930F93FF9277
:10123000EF92192F987F9695E92F96959695E90F3D
:10124000FF27E653FF4F99273327EE24FF24A701FA
:10125000E70105900894079428F4360FE71EF81E5E
:10126000491F511D660F771F881F991F0694A1F70C
:101270000590079428F4E70EF81E491F561FC11D5C
:10128000770F881F991F661F0694A1F70590079492
:1012900028F4F80E491F561FC71FD11D880F991F2C
:1012A000661F771F0694A1F70590079420F4490F55
:1012B000561FC71FD81F990F661F771F881F0694D8
:1012C000A9F784911095177041F0D695C795579559
:1012D0004795F794E7941A95C1F7E0E7F0E0689432
:1012E0001590159135916591959105907FE27395D3
:1012F000E118F10A430B560BC90BD009C0F7E10CFA
:10130000F11E431F561FC91FD01D7EF4703311F408
:101310008A95E6CFE894015030F0080F0AF40027D0
:10132000021708F4202F2395022F7A3328F079E34F
:101330007D932A95E9F710C07D932A9589F6069446
:1013400097956795379517951794E118F10A430B10
:10135000560BC90BD00998F023957E9173957A337B
:1013600008F070E37C932013B8F77E9170617D9351
:1013700030F0839571E37D9370E32A95E1F71124B2
:10138000EF90FF900F911F91CF91DF91992787FDEB
:1013900090950895FC010590615070400110D8F7B8
:1013A000809590958E0F9F1F0895FC0161507040AD
:1013B00001900110D8F7809590958E0F9F1F08958A
:1013C000B0E0A0E0E6EEF9E00C94CB08AE01475F98
:1013D0005F4F6F8178858D819E810E94D400E2E00D
:1013E0000C94E7080F931F93CF93DF93182F092FC7
:1013F000EB018B8181FD09C01FEF0FEF812F902F33
:10140000DF91CF911F910F91089582FF14C02E811B
:101410003F818C819D81281739073CF4E881F9814F
:10142000CF0101969983888310838E819F810196D5
:101430009F838E83E3CFE885F985812F0995892BDA
:10144000A1F3DACFB0E0A0E0E8E2FAE00C94C10842
:101450005B014A017901D90113962C91D0E0C0E0DB
:1014600021FF1AC0C815D905B9F08C016C01CA0C4E
:10147000DB1C0CC00F5F1F4FD7011896ED91FC913C
:10148000B701DC018C910995892B31F4C8010C1549
:101490001D0581F72196E6CFCE01CDB7DEB7ECE092
:1014A0000C94DD08AEE0B0E0E8E5FAE00C94C90881
:1014B0000D891E8986E08C831A8309838FEF9FE74D
:1014C0009E838D83AE01475E5F4F6F89788DCE011D
:1014D00001960E94D4002F813885020F131FF80156
:1014E00010822E96E4E00C94E508FA01AA27283031
:1014F00051F1203181F1E8946F936E7F6E5F7F4FE1
:101500008F4F9F4FAF4FB1E03ED0B4E03CD0670F5C
:10151000781F891F9A1FA11D680F791F8A1F911DAF
:10152000A11D6A0F711D811D911DA11D20D009F4FF
:1015300068943F912AE0269F11243019305D319341
:10154000DEF6CF010895462F4770405D4193B3E02A
:101550000FD0C9F7F6CF462F4F70405D4A3318F0D1
:10156000495D31FD4052419302D0A9F7EACFB4E082
:10157000A6959795879577956795BA95C9F700973A
:101580006105710508959B01AC010A2E06945795DB
:10159000479537952795BA95C9F7620F731F841F32
:0A15A000951FA01D0895F894FFCFD9
:1015AA00000000020000000094080000000025303E
:1015BA0032753A253032753A2530327500436C6FF0
:1015CA00636B202020257300416C61726D202020FE
:1015DA002573001B01001BC0001BC0526573657494
:1015EA0020416C61726D2020202020001BC05365B1
:1015FA007420416C61726D20202020202020001B65
:10160A00012020416C6D20486F7572733A20257550
:10161A00001B0120416C6D204D696E757465733A2B
:10162A00202575001B0120202020486F7572733A0F
:10163A00202575001B012020204D696E7574657385
:08164A003A202575001B0C007D
:02000004008278
:030000007FD9FFA6
:02000004008377
:01000000FF00
:00000001FF
